:020000040800F2
:10000000D8630020DD01000861580008194D000880
:100010005D5800086B0B00089169000800000000A3
:100020000000000000000000000000004501000882
:10003000250C00080000000089010008555A00083E
:10004000F7010008F7010008F7010008F7010008B0
:10005000F7010008F7010008F7010008F7010008A0
:10006000F7010008F7010008F7010008F701000890
:10007000F7010008C90B0008F7010008F7010008A4
:10008000D90B0008F7010008F7010008F701000884
:10009000F7010008F7010008F7010008F701000860
:1000A000F7010008F7010008F7010008F701000850
:1000B000F15A0008015B0008115B0008F701000815
:1000C000F7010008F7010008F7010008F701000830
:1000D000F7010008F7010008D16600085D68000814
:1000E000F7010008F7010008F7010008F701000810
:1000F000F7010008F7010008F7010008F701000800
:10010000F7010008F7010008215B0008F70100086B
:100110000561000891620008315B0008E15B00089E
:10012000F7010008F7010008E90B0008F7010008D3
:10013000DFF80CD000F0DCFC00480047E577000851
:10014000D8630020224B19680868B0E8F00F80F3EC
:100150000988BFF36F8F4FF0000080F311884EF0D5
:100160000D0E70470000000006480068006880F32C
:10017000088862B661B6BFF34F8FBFF36F8F00DFA1
:1001800000BF00BF08ED00E0EFF30980BFF36F8F01
:100190000F4B1A6820E9F00F106008B54FF05000BF
:1001A00080F31188BFF34F8FBFF36F8F0BF074F89C
:1001B0004FF0000080F31188BDE808401968086816
:1001C000B0E8F00F80F30988BFF36F8F704700BF6E
:1001D00010000020EFF305807047000006488047BC
:1001E00006480047FEE7FEE7FEE7FEE7FEE7FEE71C
:1001F000FEE7FEE7FEE7FEE7EF5A000831010008E0
:10020000202A04DB203A21FA02F00021704721FA6B
:1002100002F3D040C2F120029140084319467047D2
:1002200010B5431A934209D28318881803E010F8D6
:10023000011D03F8011D521EF9D210BD40EA010351
:100240009B0703D009E008C9121F08C0042AFAD28C
:1002500003E011F8013B00F8013B521EF9D210BD3A
:10026000D2B201E000F8012B491EFBD270470022F8
:10027000F6E710B513460A4604461946FFF7F0FFA5
:10028000204610BDF0B480EA0102D40F4200B2EB68
:10029000410F02D20246084611464A0042D0C30D21
:1002A000DDB2C1F3C752AD1A202D35DAC1F3160104
:1002B00041F4000204B15242C5F1200602FA06F1EF
:1002C0002A411044B3EBD05F23D0C4B1012DA0EB81
:1002D000C35009DCF0BC4FF0004202EAC352DBB26B
:1002E00000F5000000F061BB400000F1807000EB01
:1002F000C350A0F1807040EAD170490009E049087C
:1003000041EAC071A0EBC35000F50000400800EBCB
:10031000C350F0BC00F040BB6142012202EB41013E
:10032000001BF6E7F0BC704781F00041AAE780F0BF
:100330000040A7E780EA010210B502F00043400048
:1003400022D04A001FD0010E01EB1261C0F356000B
:10035000C2F3560240F4000042F40002A0FB022067
:1003600000047F39140400D0401C50EA124001D42C
:100370004000491EC2B20C0604EBD010401C4008DD
:10038000802A02D003E0002010BD20F001000029E7
:1003900000DA0020184310BD30B480EA010202F0F8
:1003A000004530F0004221F0004013D090B1C30D61
:1003B000D40DC2F31601C0F31600E41A41F4000193
:1003C00040F400027D34914201D3641C00E04900F6
:1003D000002C02DA30BC002070474FF400000023EC
:1003E000914201D3891A034340084FEA4101F7D1F2
:1003F00051B1914202D14FF0004105E002D24FF0DD
:10040000010101E06FF0010103EBC450284430BC4E
:1004100000F0C2BA2DE9FE4F804681EA0300C00F0A
:100420000C46009021F0004123F00045B8EB02009B
:10043000A94105D24046214690461C460B4602463D
:1004400023F00040104347D0270DC7F30A00C3F341
:100450000A510290401A019040286BDAC3F313004E
:1004600040F4801B0098924620B10023D2EB030A8F
:1004700063EB0B0B01985946C0F14002504600F067
:100480006AFA06460D4650465946019A00F072FA3D
:1004900010EB08006141002487EA115284EAE773F7
:1004A0001A4340D0009A62B3019A012A4FEA0752D8
:1004B00015DC001B61EB02014FF0004202EA07521B
:1004C000CDE90042001C41F5801132462B4600F078
:1004D000A9FA03B0BDE8F08F40462146F9E7001BBA
:1004E00061EB0201001C41F5801300185B412018EC
:1004F000A2F5001747EB030140EAD570B6196D412C
:1005000011E06D084FEA360645EAC0754FEA07521A
:10051000001B61EB0201001C41F5801149084FEA04
:1005200030000019514132462B4603B0BDE8F04F70
:1005300000F069BA0098012240000023D0EB0202CB
:1005400063EBE073009821464FEAE074B8EB0000DB
:1005500061EB0401E9E783F000435BE781F00041D0
:1005600058E72DE9FE4F81EA030404F0004421F02E
:10057000004100944FF0000B23F0004350EA0104C7
:100580005ED052EA03045BD0C3F30A54C1F30A55A8
:100590002C44A4F2F3340194A0FB0254C1F31301E0
:1005A00041F48011C3F3130343F4801301FB0244AD
:1005B00000FB034E840A970A44EA815447EA8357B2
:1005C000A4FB076802958D0A05FB07854FEA932C6B
:1005D00004FB0C542705029D4FEA065847EA1637DC
:1005E000B5EB08056EEB070C870E920E47EA8117F4
:1005F00042EA8312A7FB0201B6EB0B0164EB000495
:100600002B0D43EA0C335E1844EB1C50DA4651467E
:10061000E7FB0201C5F313044FEA0B3343EA14531B
:100620004FEA0432019C43EA0603A4F10C0402944D
:10063000009CCDE900B400F0F5F903B0BDE8F08FFF
:1006400000200146F9E72DE9F04D81EA030404F0AA
:10065000004B21F0004514464FF0000A23F0004102
:1006600050EA050220D054EA01021DD0C5F30A5712
:100670000246C5F31303C1F31300C1F30A5640F455
:10068000801543F48013A7EB0608101BD64608F22A
:10069000FD3873EB050002D308F1010801E0921860
:1006A0005B41B8F1000F03DA00200146BDE8F08D90
:1006B00000204FF48011064684460EE0171B73EBB2
:1006C000050705D3121B63EB050306434CEA010C37
:1006D00049084FEA300092185B4150EA0107EDD11A
:1006E00052EA030012D082EA040083EA05010843BB
:1006F00005D0101BAB4106D20122002306E00022E8
:100700004FF0004302E06FF0010253101AEB0600B5
:100710004CEB085110EB0A0041EB0B01BDE8F04D2A
:1007200000F071B9C10F80EAE0700844CA0796234F
:10073000002100F03AB996230022114600F035B9A5
:100740000EB5C10F80EAE0700844CA07002140F2EC
:1007500033438DE80E000A460B4600F063F903B000
:1007600000BD0EB540F2334102910021CDE90011E8
:100770000A460B4600F056F903B000BD00F00042F7
:1007800020F00040C10DC0F3160040F400007F29A6
:1007900001DA00207047962903DCC1F19601C840B8
:1007A00001E096398840002AF4D040427047C1F3F6
:1007B0000A5210B5C1F3130140F2FF3341F4801126
:1007C0009A4201DA002010BD40F233439A42A2F26D
:1007D000334203DC5242FFF713FD10BD904010BDC1
:1007E00000F0004230F000400AD0C10D01F5607108
:1007F000C0F3160042EA0151C20840071143704796
:10080000002001467047000030B5041E71F100045D
:1008100004DB4FF00044404264EB0101141E73F10D
:10082000000405DB1C464FF00043524263EB040317
:100830008B4208BF824230BD30B5041E71F1000406
:1008400004DB4FF00044404264EB0101141E73F1DD
:10085000000405DB1C464FF00043524263EB0403E7
:10086000994208BF904230BD01F0004330B421F0FE
:10087000004150EA010206D00A0DA2F56072C1F3F0
:100880001301002A02DC30BC00207047440F44EA08
:10089000C104C100E01830BC00EBC25000F07CB8CD
:1008A000002801DBC0F10040002901DBC1F100415B
:1008B00081427047002801DBC0F10040002901DBC4
:1008C000C1F100418842704730B50B460146002017
:1008D0002022012409E021FA02F59D4205D303FA02
:1008E00002F5491B04FA02F52844151EA2F1010283
:1008F000F1DC30BD2DE9F05F0546002092469B46B5
:1009000088460646814640241BE028464146474625
:100910002246FFF775FC53465A46C01A914110D340
:1009200011461846224600F016F82D1A67EB01080A
:100930004F4622460120002100F00DF817EB000978
:100940004E41201EA4F10104DFDC484631462A4610
:100950004346BDE8F09F202A04DB203A00FA02F16A
:10096000002070479140C2F1200320FA03F319439D
:1009700090407047202A06DBCB17203A41FA02F05C
:1009800043EAE07306E041FA02F3D040C2F12002EC
:1009900091400843194670470029A8BF7047401C82
:1009A000490008BF20F00100704710B4B0FA80FC85
:1009B00000FA0CF050EA010404BF10BC704749B1C2
:1009C000CCF1200421FA04F411FA0CF118BF012132
:1009D00021430843A3EB0C01CB1D4FEA00614FEA12
:1009E000102042BF002010BC704700EBC3501044E1
:1009F0000029A4BF10BC7047401C490008BF20F06C
:100A0000010010BC704710B5141E73F1000408DA21
:100A1000401C41F1000192185B411A4301D120F0C2
:100A2000010010BD2DE9F04D92469B4611B1B1FA7F
:100A300081F202E0B0FA80F220329046FFF78BFF9D
:100A400004460F4640EA0A0041EA0B0153465A4663
:100A5000084313D0114653EA010019D0C8F14002EF
:100A60005046FFF7CDFB05460E46504659464246D6
:100A7000FFF771FF084305D0012004E02046394606
:100A8000BDE8F08D0020054346EAE0762C4337436D
:100A90000A986305E40AA0EB08000022FD0A44EA74
:100AA00047540A3002D500200146E9E70105101934
:100AB0006941DDE9084500196941BDE8F04DA2E74B
:100AC000C1F30A52C1F3130140F2FF3341F4801124
:100AD0009A4202DA00200146704740F233439A42BC
:100AE000A2F2334202DC5242FFF78ABBFFF733BF68
:100AF000064C074D06E0E06840F0010394E807006B
:100B000098471034AC42F6D3FFF716FB4CB90008F7
:100B10006CB9000870B58C1810F8015B15F007036C
:100B200001D110F8013B2A1106D110F8012B03E086
:100B300010F8016B01F8016B5B1EF9D12B0705D48E
:100B40000023521E0DD401F8013BFAE710F8013BD7
:100B5000CB1A921C03E013F8015B01F8015B521EF3
:100B6000F9D5A142D8D3002070BD00BFFEE7000038
:100B700010B507480068C06840F0100004490968D3
:100B8000C86014220349024804F0A2F810BD000016
:100B9000DC5A0020A45B002010B5002008F00EFBFA
:100BA00000200549486105494861054948610549F2
:100BB000486108F00FF810BD085E0020385E002084
:100BC000205E0020505E002010B5024800F036FF85
:100BD00010BD00001808002010B5024800F02EFFDC
:100BE00010BD00005C08002010B5024800F026FF90
:100BF00010BD0000D407002030B590F8405001240B
:100C0000AC40C56B6C60046863604468102C04D110
:100C10000468A2600468E16003E00468A1600468FD
:100C2000E26030BD704700002DE9F041044606F057
:100C3000D3FC80462146404608F0FCF9FE49886016
:100C400000208861FD49FC4808F054FB0546FC483B
:100C50004068FC498860FA480068FB498860FB48A6
:100C6000007880B9FA49F74808F044FB80F000406A
:100C7000F8490860F649F44808F03CFB80F0004071
:100C8000F549086020E0F1480078012803D0EF48DA
:100C90000078032808D1EE49EA4808F02BFB80F0E1
:100CA0000040EC4908600FE0E8480078022803D0D3
:100CB000E6480078042807D1E549E34808F01AFB24
:100CC00080F00040E4490860E3480068FFF788FDD1
:100CD00021F0004106460022E04BFFF795FD02D2CD
:100CE0000020DD490860DE4881692846FFF7E2FD03
:100CF00002D8DB4885690CE0D948806980F000465D
:100D000029463046FFF7D6FD03D8D548806980F0E4
:100D100000452946D3480068FFF7B4FAD249086075
:100D2000CF48C169CB480068FFF7C4FD04D8CC4860
:100D3000C069C84908600FE0C948C06980F0004632
:100D4000C44801683046FFF7B5FD05D8C448C069FE
:100D500080F00040BF490860C148C169BE480068D2
:100D6000FFF7A8FD04D8BE48C069BB4908600FE082
:100D7000BB48C06980F00046B74801683046FFF7BD
:100D800099FD05D8B648C06980F00040B2490860B6
:100D9000AE480078002850D1B4494868B249096883
:100DA000FFF7C8FA0646AC480168AA480068FFF792
:100DB00069FA07463146FFF765FAAD494861AB4924
:100DC0004868A9490968FFF7B5FA0646A2480168CC
:100DD000A0480068FFF7A8FA07463146FFF752FA25
:100DE00080F00040A3494861A04948689E490968CD
:100DF000FFF7A0FA06469848016896480068FFF792
:100E000093FA07463146FFF78FFA80F000409A497F
:100E100048619649886894490968FFF78BFA064645
:100E20008D4801688B480068FFF72CFA0746314669
:100E3000FFF77AFA9149486127E184480078012850
:100E400050D18A49486888490968FFF773FA06460D
:100E5000814801687F480068FFF714FA0746314669
:100E6000FFF710FA82494861804948687E4909685D
:100E7000FFF760FA06467848016876480068FFF791
:100E800053FA07463146FFF7FDF980F000407949F3
:100E900048617649486874490968FFF74BFA064685
:100EA0006D4801686B480068FFF73EFA0746314617
:100EB000FFF73AFA80F000406F4948616B49886853
:100EC00069490968FFF736FA0646634801686148D0
:100ED0000068FFF7D7F907463146FFF725FA67495B
:100EE0004861D2E059480078022850D15F494868EB
:100EF0005D490968FFF71EFA0646574801685548DC
:100F00000068FFF7BFF907463146FFF7BBF95849BC
:100F100048615649486854490968FFF70BFA064684
:100F20004D4801684B480068FFF7FEF90746314617
:100F3000FFF7A8F980F000404E4948614B494868E6
:100F400049490968FFF7F6F90646434801684148F0
:100F50000068FFF7E9F907463146FFF7E5F980F049
:100F6000004045494861414988683F490968FFF7A1
:100F7000E1F906463848016836480068FFF782F90B
:100F800007463146FFF7D0F93C4948617DE02F48DC
:100F90000078032803D02D480078042875D1334900
:100FA000486831490968FFF7C5F906462A480168CB
:100FB00028480068FFF766F907463146FFF762F9EF
:100FC0002B4948612949486827490968FFF7B2F960
:100FD0000646214801681F480068FFF7A5F9074643
:100FE0003146FFF74FF980F00040224948611F4920
:100FF00048681D490968FFF79DF9064616480168CB
:1010000014480068FFF790F907463146FFF78CF95E
:1010100080F00040184948611449886812490968FD
:10102000FFF788F906460C4801680A480068FFF790
:1010300029F90746314624E02C5F0020645F002038
:1010400038020020805F00209C5F0020A00000206C
:10105000B85F0020A4000020A80000200000144079
:10106000B000002088000020840000208C000020B8
:10107000085E0020205E0020385E0020505E0020C8
:1010800003E0FFF751F9024948610120BDE8F08112
:10109000505E002010B53D22FD49FE48FFF7C0F824
:1010A000FB4890F83D00FB4981F83D00F84890F876
:1010B0003E0081F83E00F64890F83F10F54880F871
:1010C0003F10F34890F84010F24880F84010F04884
:1010D00090F84110EF4880F84110ED4890F8420038
:1010E000EC4981F84200EA4890F84310E94880F85A
:1010F0004310E74890F84410E64880F84410E4486C
:1011000090F84510E34880F84510E14890F8460013
:10111000E04981F84600E04888648020C8640020E7
:101120000865012048650846016D02F031FF00BFE7
:10113000D848006D40B9D7480068006A20F00A001E
:10114000D4490968086221E0D248006D042808D11A
:10115000D0480068006A20F0A000CE490968086203
:1011600014E0CC48006D082808D1CA480068006A1D
:1011700020F40070C7490968086207E0C5480068A4
:10118000006A20F40050C34909680862C148006D34
:1011900030B9C0480068006ABE49096808621BE0AF
:1011A000BC48006D042806D1BA480068006AB949F5
:1011B0000968086210E0B748006D082806D1B548F4
:1011C0000068006AB3490968086205E0B148006830
:1011D000006AB0490968086200BF3D22AF49B048C3
:1011E000FFF71EF8AD4890F83D00AD4981F83D008D
:1011F000AA4890F83E0081F83E00A84890F83F10B9
:10120000A74880F83F10A54890F84010A44880F8FF
:101210004010A24890F84110A14880F841109F4822
:1012200090F842009E4981F842009C4890F8431093
:101230009B4880F84310994890F84410984880F8EB
:101240004410964890F84510954880F8451093480A
:1012500090F84600924981F84600924888648020C0
:10126000C86400200865012048650846016D02F049
:101270008FFE00BF8A48006D40B989480068006A47
:1012800020F00A0086490968086221E08448006D60
:10129000042808D182480068006A20F0A000804934
:1012A0000968086214E07E48006D082808D17C486F
:1012B0000068006A20F4007079490968086207E054
:1012C00077480068006A20F4005075490968086290
:1012D0007348006D30B972480068006A7049096847
:1012E00008621BE06E48006D042806D16C48006857
:1012F000006A6B490968086210E06948006D0828B7
:1013000006D167480068006A65490968086205E017
:1013100063480068006A62490968086200BF3D22AC
:1013200061496248FEF77CFF5F4890F83D005F49E5
:1013300081F83D005C4890F83E0081F83E005A4834
:1013400090F83F10594880F83F10574890F84010E7
:10135000564880F84010544890F84110534880F89F
:101360004110514890F84200504981F842004E48DF
:1013700090F843104D4880F843104B4890F84410C3
:101380004A4880F84410484890F84510474880F88B
:101390004510454890F84600444981F846004148C8
:1013A00088640820C8640020086501204865084654
:1013B000016D02F0EDFD00BF3C48006D40B93B48B7
:1013C0000068006A20F00A0038490968086221E0D4
:1013D0003648006D042808D134480068006A20F0BF
:1013E000A00032490968086214E03048006D0828FE
:1013F00008D12E480068006A20F400702B49096863
:10140000086207E029480068006A20F40050274974
:10141000096808622548006D30B924480068006AF0
:101420002249096808621BE02048006D042806D1A3
:101430001E480068006A1D490968086210E01B48E0
:10144000006D082806D119480068006A1749096824
:10145000086205E015480068006A144909680862D6
:1014600000BF3D2212491348FEF7DAFE104890F8FB
:101470003D00104981F83D000D4890F83E0081F88C
:101480003E000B4890F83F100A4880F83F1013E0E8
:10149000A4050020B85B002000080140EC050020F6
:1014A000105C0020000C01405C050020685C0020FE
:1014B00034060020C05C0020464890F840104648A2
:1014C00080F84010434890F84110434880F841109C
:1014D000404890F84200404981F842003D4890F869
:1014E00043103D4880F843103A4890F844103A4879
:1014F00080F84410374890F84510374880F8451078
:10150000344890F84600344981F8460033488864EE
:101510000220C86400200865012048650846016D66
:1015200002F036FD00BF2C48006D40B92A48006823
:10153000006A20F00A0028490968086221E026486C
:10154000006D042808D124480068006A20F0A0003B
:1015500021490968086214E01F48006D082808D175
:101560001D480068006A20F400701B490968086281
:1015700007E019480068006A20F40050164909681D
:1015800008621548006D30B913480068006A1249B6
:10159000096808621BE01048006D042806D10E4857
:1015A0000068006A0C490968086210E00A48006D8A
:1015B000082806D108480068006A074909680862D7
:1015C00005E005480068006A03490968086200BF31
:1015D00010BD000034060020C05C0020000801405F
:1015E00072B600BFFEE700002DE9F04146480068F2
:1015F00018B90020454908611BE045490868FFF714
:1016000091F8074643490868FFF78CF880463E4842
:1016100000684149B1FBF0F63046FFF78CF805460B
:101620004146FEF787FE04463946FEF783FE3749FA
:1016300008613548406818B90020384908611BE046
:1016400033494868FFF76EF8074632494868FFF7A4
:1016500069F880462C4840682F49B1FBF0F63046C7
:10166000FFF769F805464146FEF764FE0446394631
:10167000FEF760FE294908612348806818B90020F8
:10168000274908611BE022498868FFF74BF80746A5
:1016900020498868FFF746F880461B4880681E4945
:1016A000B1FBF0F63046FFF746F805464146FEF737
:1016B00041FE04463946FEF73DFE194908611248CD
:1016C000C06818B90020174908611BE01049C868B4
:1016D000FFF728F807460F49C868FFF723F8804648
:1016E0000948C0680C49B1FBF0F63046FFF723F813
:1016F00005464146FEF71EFE04463946FEF71AFE31
:1017000008490861BDE8F081385D0020085E0020CE
:10171000585D002088020020A0860100205E002085
:10172000385E0020505E00202DE9F04100250026A3
:1017300000274FF4FA6009F03DFC09F0F3FD0024A6
:1017400015E0142009F036FC154801682846FEF71C
:1017500099FD0546124881683046FEF793FD06461E
:10176000104801683846FEF78DFD0746641C0A2CB8
:10177000E7DB0D492846FEF70FFE05460A493846C5
:10178000FEF70AFE094908600021284607F046FCDA
:1017900005493046FEF700FE01490861BDE8F081C9
:1017A000685B002038020020000020415402002025
:1017B0002DE9F041044619484068194988601948E4
:1017C000006888611849164807F094FD05461749D6
:1017D0002846FFF76FF801D8144D05E01449284654
:1017E000FFF75EF800D8124D24F000471149384643
:1017F000FEF7D2FD06462946FEF79CFD0546294622
:101800002046FEF791FD0C49086029462046FEF768
:1018100039FD09494860BDE8F0810000D859002031
:10182000D85E002070000020F45E00200000FA4422
:101830000000FAC400004842B00000200146002227
:1018400091F82100022808D00420886300BF0020FE
:1018500081F8200000BF012070470868006820F070
:101860000E000B6818600868006820F001000B6823
:10187000186091F8403001209840CB6B58600120EF
:1018800081F8210000BF002081F8200000BF104631
:10189000E2E7000070B50446002594F82100022814
:1018A00003D00420A0630125C1E02068006820F077
:1018B0000E00216808602068006820F0010021689F
:1018C00008605C492068884252D95A4978392068B2
:1018D000884201D1012047E0564964392068884296
:1018E00001D1102040E0534950392068884201D18D
:1018F000801539E04F493C392068884201D1801475
:1019000032E04C4928392068884202D14FF48030B7
:101910002AE0484914392068884202D14FF48010E7
:1019200022E044492068884201D140041CE0424939
:101930002068884201D1012016E03F491431206817
:10194000884201D110200FE03B49283120688842AD
:1019500001D1801508E038493C312068884201D126
:10196000801401E04FF480303349091F086051E0D2
:10197000304978392068884201D1012047E02D495B
:1019800064392068884201D1102040E0294950394B
:101990002068884201D1801539E026493C39206809
:1019A000884201D1801432E02249283920688842D7
:1019B00002D14FF480302AE01E4914392068884251
:1019C00002D14FF4801022E01A492068884201D1E8
:1019D00040041CE018492068884201D1012016E02B
:1019E000154914312068884201D110200FE01249B6
:1019F00028312068884201D1801508E00E493C3129
:101A00002068884201D1801401E04FF480300949F8
:101A100080394860012084F8210000BF002084F84C
:101A2000200000BF606B10B12046616B88472846DC
:101A300070BD0000800002400804024070B50446FA
:101A4000E06B05682068066894F840100420884020
:101A50002840002875D006F004000028FAD020683D
:101A6000006800F0200028B92068006820F0040019
:101A700021680860D5492068884254D9D34978390B
:101A80002068884201D1042049E0D04964392068A7
:101A9000884201D1402042E0CC4950392068884238
:101AA00001D100153BE0C9493C392068884202D188
:101AB0004FF4804033E0C54928392068884202D17C
:101AC0004FF480202BE0C14914392068884202D1AC
:101AD0004FF4800023E0BD492068884201D1C00452
:101AE0001DE0BB492068884201D1042017E0B849B5
:101AF00014312068884201D1402010E0B4492831D7
:101B00002068884201D1001509E0B1493C312068C4
:101B1000884202D14FF4804001E04FF48020AC496C
:101B2000091F086054E0A94978392068884201D12A
:101B300004204AE0A54964392068884202D1402047
:101B400043E04CE0A14950392068884201D100159A
:101B50003BE09E493C392068884202D14FF48040E6
:101B600033E09A4928392068884202D14FF4802016
:101B70002BE0964914392068884202D14FF4800046
:101B800023E092492068884201D1C0041DE09049B9
:101B90002068884201D1042017E08D491431206863
:101BA000884201D1402010E08949283120688842CC
:101BB00001D1001509E086493C312068884202D1F4
:101BC0004FF4804001E04FF4802080498039486024
:101BD000E06A002802D02046E16A8847F4E094F8E1
:101BE0004010022088402840002871D006F00200F2
:101BF0000028FAD02068006800F0200040B9206872
:101C0000006820F00A0021680860012084F82100A3
:101C10006E492068884254D96C49783920688842D6
:101C200001D1022049E0694964392068884201D124
:101C3000202042E0654950392068884201D1401592
:101C40003BE062493C392068884202D14FF40050A1
:101C500033E05E4928392068884202D14FF40030D1
:101C60002BE05A4914392068884202D14FF4001001
:101C700023E056492068884201D180041DE0544980
:101C80002068884201D1022017E0514914312068B0
:101C9000884201D1202010E04D4928312068884237
:101CA00001D1401509E04A493C312068884202D1FF
:101CB0004FF4005001E04FF400304549091F08601F
:101CC00054E0424978392068884202D102204AE033
:101CD00057E03E4964392068884201D1202042E023
:101CE0003A4950392068884201D140153BE03749D4
:101CF0003C392068884202D14FF4005033E0334928
:101D000028392068884202D14FF400302BE02F4957
:101D100014392068884202D14FF4001023E02B4987
:101D20002068884201D180041DE02949206888424A
:101D300001D1022017E0264914312068884201D1E0
:101D4000202010E0224928312068884201D1401526
:101D500009E01F493C312068884202D14FF400500D
:101D600001E04FF4003019498039486000BF00207D
:101D700084F8200000BFA06A30B32046A16A8847DB
:101D800022E094F84010082088402840E0B106F096
:101D90000800C8B12068006820F00E0021680860C3
:101DA00094F8401001208840E16B48600120A06356
:101DB00084F8210000BF002084F8200000BF206BC1
:101DC00010B12046216B884770BD000080000240A2
:101DD000080402400146002209B9012070471E4B49
:101DE000086898420BD21D4B0868C01A1423B0FB38
:101DF000F3F08000086419480838C8630AE0164BFD
:101E00000868C01A1423B0FBF3F08000086412487D
:101E10000838C863022081F821000868026843F688
:101E2000F0708243D1E901031843CB6818430B6972
:101E300018434B6918438B691843CB691843024315
:101E40000868026000208863012081F821000020DA
:101E500081F8200000BFC1E70804024008000240EA
:101E60002DE9F04104460D4616461F464FF0000886
:101E700000BF94F82000012802D10220BDE8F081C3
:101E8000012084F8200000BF94F8210001282CD103
:101E9000022084F821000020A0632068006820F060
:101EA0000100216808603B46324629462046FEF77D
:101EB000A3FEE06A30B12068006840F00E0021689F
:101EC00008600BE02068006820F0040021680860CA
:101ED0002068006840F00A002168086020680068F7
:101EE00040F001002168086006E000BF002084F88F
:101EF000200000BF4FF002084046BFE72DE9F84739
:101F0000024600239C467BE14FF0010808FA03F4E7
:101F1000D1F8008008EA0400A0427DD1DFF8F4A2E5
:101F2000D1F80480A8EB0A09D0453AD014DCB8F106
:101F3000030F50D009DCB8F1000F31D0B8F1010F18
:101F40001CD0B8F1020F49D120E0B8F1110F18D020
:101F5000B8F1120F42D11EE0B9F5881F25D006DC7A
:101F6000B9F5803F20D0B9F5801F37D11AE0B9F517
:101F7000001F18D0B9F5041F30D117E0D1F80CC0FC
:101F80002DE0D1F80C8008F1040C28E0D1F80C8089
:101F900008F1080C23E0D1F80C8008F10C0C1EE0CD
:101FA00000BF00BF00BF00BF00BF00BFD1F8088066
:101FB000B8F1000F02D14FF0040C0BE0D1F808800B
:101FC000B8F1010F03D14FF0080C146102E04FF09B
:101FD000080C546103E04FF0000C00E000BF00BFAC
:101FE000FF2801D8904601E002F104084646FF2888
:101FF00002D84FEA830803E0A3F108084FEA8808F3
:102000004746D6F800804FF00F0909FA07F928EA89
:1020100009080CFA07F900E07AE048EA0908C6F86E
:102020000080D1F8048008F08058B8F1805F6FD14B
:1020300000BFDFF8E481D8F8188048F00108DFF825
:10204000D891C9F81880C846D8F8188008F0010857
:10205000CDF8008000BF00BF4FEAB9384FEA9309BE
:1020600058F829504FEA83784FEA18794FF00F0853
:1020700008FA09F825EA0805DFF8A081424502D1EF
:102080004FF0000824E0DFF89881424502D14FF07C
:1020900001081DE0DFF88C81424502D14FF00208B3
:1020A00016E0DFF88481424502D14FF003080FE0CB
:1020B000DFF87881424502D14FF0040808E0DFF8EC
:1020C0007081424502D14FF0050801E04FF006084B
:1020D0004FEA83794FEA197908FA09F848EA0505C1
:1020E000DFF850814FEA930948F82950D1F804806D
:1020F00008F48038B8F5803F0BD1DFF83C81D8F880
:10210000008048EA0008DFF83091C9F800800AE052
:1021100075E0DFF82481D8F8008028EA0008DFF8AD
:102120001891C9F80080D1F8048008F40038B8F597
:10213000003F0ED1DFF8008108F10408D8F80080D4
:1021400048EA0008DFF8F09009F10409C9F80080B6
:102150000DE0DFF8E48008F10408D8F8008028EAF0
:102160000008DFF8D49009F10409C9F80080D1F81B
:10217000048008F48018B8F5801F0ED1DFF8B8800D
:1021800008F10808D8F8008048EA0008DFF8A890AD
:1021900009F10809C9F800800DE0DFF89C8008F11A
:1021A0000808D8F8008028EA0008DFF88C9009F1C8
:1021B0000809C9F80080D1F8048008F40018B8F5BF
:1021C000001F0ED1DFF8708008F10C08D8F80080ED
:1021D00048EA0008DFF8609009F10C09C9F80080AE
:1021E0000DE0DFF8548008F10C08D8F8008028EAE8
:1021F0000008DFF8449009F10C09C9F800805B1C65
:10220000D1F8008028FA03F8B8F1000F7FF47CAE13
:10221000BDE8F887000011100010024000080140DE
:10222000000C014000100140001401400018014062
:10223000001C014008000140000401400246936870
:102240000B400BB1012000E00020704710B5C268C0
:1022500021EA020302EA010443EA0443036110BDD8
:102260000AB1016101E00B04036170470148006895
:102270007047000000000020034800680349097807
:102280000844014908607047000000200800002051
:1022900010B50848006840F01000064908600320A7
:1022A00000F0CCF80F2000F007F800F049F800200B
:1022B00010BD00000020024070B588B00446002523
:1022C000002600222146372000F07AF8372000F05F
:1022D00067F800BF1648C06940F020001449C86183
:1022E0000846C06900F02000019000BF00BF02A9AD
:1022F00003A800F07DF900F0A3F945000D48B5FBF7
:10230000F0F0461E0C480D49086040F2E7310B48DA
:10231000C160466000210161816000F0B7FC20B916
:10232000064800F013FE08B070BD0120FBE7000076
:102330000010024040420F0000140040A00800209E
:1023400008B500BF1448806940F001001249886157
:102350000846806900F00100009000BF00BF00BF88
:102360000846C06940F08050C8610846C06900F066
:102370008050009000BF00BF00220F21901E00F08F
:102380001FF800BF0549486820F0E06040F0007089
:10239000486000BF08BD000000100240000001407E
:1023A00001460846002809DB00F01F0301229A407D
:1023B00043099B0003F1E023C3F8002100BF7047ED
:1023C0002DE9F05F80460D461646002704F034FBE9
:1023D000074639462A46334601F00700C0F1070A8E
:1023E000BAF1040F02D94FF0040A01E0C0F1070A64
:1023F000D14600F1040ABAF1070F02D24FF0000AE9
:1024000001E0A0F1030AD4464FF0010A0AFA09FAE2
:10241000AAF1010A0AEA020A0AFA0CFA4FF0010BC1
:102420000BFA0CFBABF1010B0BEA030B4AEA0B04B2
:102430002146404604F008FBBDE8F09F00BF00F0D5
:102440000702064B19684FF6FF031940044B0B4374
:1024500043EA0221014B196000BF70470CED00E018
:102460000000FA0570B504460D460CB9012070BD98
:102470005A48006800F00700A8420ED2574800688A
:1024800020F007002843554908600846006800F01E
:102490000700A84201D00120E9E7207800F00200FF
:1024A00002281DD1207800F00400042805D14C48F2
:1024B000406840F4E0604A494860207800F0080035
:1024C000082805D14648406840F4605044494860B7
:1024D0004348406820F0F000A16808434049486044
:1024E000207800F0010078B36068012806D13C48EC
:1024F000006800F4003090B90120B8E76068022855
:1025000006D13748006800F0007040B90120AEE7FE
:102510003348006800F0020008B90120A7E73048FE
:10252000406820F00300616808432D494860FFF7C8
:102530009DFE064609E0FFF799FE801B41F28831B7
:10254000884202D9032092E707E02548406800F05E
:102550000C006168B0EB810FEDD12048006800F0FD
:102560000700A8420ED91D48006820F00700284344
:102570001A4908600846006800F00700A84201D028
:10258000012074E7207800F00400042807D11448E3
:10259000406820F4E060E168084311494860207811
:1025A00000F00800082808D10D48406820F4605069
:1025B000216940EAC1000A49486000F061F8084911
:1025C0004968C1F30311074A515CC84006490860D5
:1025D00006480068FFF770FE002048E70020024030
:1025E00000100240E4B700080C00002004000020A6
:1025F0000F2202600D4A526802F0030242600B4A49
:10260000526802F0F0028260084A526802F4E06206
:10261000C260064A526802F46052D2080261044A5B
:10262000126802F007020A607047000000100240C2
:102630000020024001480068704700000C000020A4
:1026400000B5FFF7F7FF04494968C1F30221034AC7
:10265000515CC84000BD000000100240F4B7000803
:1026600000B5FFF7E7FF04494968C1F3C221034AF7
:10267000515CC84000BD000000100240F4B70008E3
:10268000F0B585B00FF26C0C9CE8E01001A8A0E852
:10269000E0101CA52D6800950021002200230024D5
:1026A0000020194D696801F00C05F5B1042D02D028
:1026B000082D19D101E0154819E001ADC1F3834699
:1026C000AC5D01F4803555B10F4D6D68C5F34045E3
:1026D0001DF805200D4D6543B5FBF2F302E00C4DEE
:1026E00004FB05F3184602E000BF084800BF00BF26
:1026F00005B0F0BD02030405060708090A0B0C0D1E
:102700000E0F1010010200000010024000127A00AB
:1027100000093D00F8B504460CB90120F8BD207849
:1027200000F00100002878D0F848406800F00C0064
:1027300004280CD0F548406800F00C00082811D19E
:10274000F248406800F48030B0F5803F0AD1EF488D
:10275000006800F4003000285FD0606800285CD179
:102760000120DBE700BF6068B0F5803F06D1E74895
:10277000006840F48030E549086028E0606858B996
:10278000E248006820F48030E049086008460068AC
:1027900020F4802008601AE06068B0F5A02F0BD10B
:1027A000DA48006840F48020D8490860084600688C
:1027B00040F4803008600AE0D448006820F480309B
:1027C000D24908600846006820F48020086000BFF5
:1027D000606888B1FFF74AFD054606E0FFF746FD51
:1027E000401B642801D9032098E7C848006800F41A
:1027F00000300028F2D010E0FFF738FD054606E073
:10280000FFF734FD401B642801D9032086E7BF4849
:10281000006800F400300028F2D1207800F00200B7
:10282000022857D1B948406800F00C0050B1B748B1
:10283000406800F00C00082818D1B448406800F443
:10284000803098B9B148006800F0020020B12069DA
:10285000012801D0012061E7AC48006820F0F800B1
:10286000616940EAC100A949086033E02069E8B124
:102870000120A7490860FFF7F9FC054606E0FFF7CD
:10288000F5FC401B022801D9032047E79F48006858
:1028900000F002000028F2D09C48006820F0F80008
:1028A000616940EAC1009949086013E00020984935
:1028B0000860FFF7DBFC054606E0FFF7D7FC401B8E
:1028C000022801D9032029E79048006800F002009F
:1028D0000028F2D1207800F0080008282DD1A06946
:1028E000B8B101208B490860FFF7C0FC054606E03F
:1028F000FFF7BCFC401B022801D903200EE78348E8
:10290000406A00F002000028F2D0012002F0AAFF85
:1029100013E000207F490860FFF7A8FC054606E0A9
:10292000FFF7A4FC401B022801D90320F6E67748F4
:10293000406A00F002000028F2D1207800F0040084
:10294000042873D100277148C06900F0805070B925
:1029500000BF6E48C06940F080506C49C8610846AD
:10296000C06900F08050009000BF00BF01276A4896
:10297000006800F48070B0B96748006840F4807067
:1029800065490860FFF772FC054606E0FFF76EFC3C
:10299000401B642801D90320C0E65F48006800F4AA
:1029A00080700028F2D000BFE068012806D15748A7
:1029B000006A40F001005549086227E0E06858B914
:1029C0005248006A20F00100504908620846006A37
:1029D00020F00400086219E0E06805280BD14B489C
:1029E000006A40F00400494908620846006A40F065
:1029F000010008620AE04548006A20F001004349EE
:102A000008620846006A20F00400086200BFE0681F
:102A1000A0B1FFF72BFC054609E0FFF727FC401BA0
:102A200041F28831884202D9032077E622E0374814
:102A3000006A00F002000028EFD012E0FFF716FC59
:102A4000054608E0FFF712FC401B41F2883188423E
:102A500001D9032062E62D48006A00F00200002838
:102A6000F0D1012F05D12948C06920F080502749B5
:102A7000C86100BFE069C8B32448406800F00C009A
:102A8000082860D0E069022848D100202049086663
:102A9000FFF7ECFB054606E0FFF7E8FB401B0228CA
:102AA00001D903203AE61948006800F000700028B8
:102AB000F2D1206AB0F5803F07D11448406820F475
:102AC0000030A168084311494860D4E9080108436F
:102AD0000E49496821F4741108430C4948600120EB
:102AE0000B490866FFF7C2FB054607E03DE0FFF72C
:102AF000BDFB401B022801D903200FE603480068F4
:102B000000F000700028F2D02FE00000001002401A
:102B100000004242800442420070004000201449FC
:102B20000866FFF7A3FB054606E0FFF79FFB401B87
:102B3000022801D90320F1E50E48006800F000707A
:102B40000028F2D111E0E069012800D1E6E509484A
:102B5000466806F48031206A814204D106F470117F
:102B6000606A814201D00120D8E50020D6E500004E
:102B700000004242001002407047704710B5034603
:102B8000002200BF93F83C00012801D1022010BDB3
:102B9000012083F83C0000BF22F0FF00CC6840EA2F
:102BA000040222F440708C6840EA040222F480603F
:102BB0004C6840EA040222F400600C6840EA040217
:102BC00022F480500C6940EA040222F400504C695F
:102BD00040EA040222F48040CC6940EA040218680A
:102BE000426400BF002083F83C0000BF00BFCEE776
:102BF00030B502460B4600BF92F83C00012801D1D7
:102C0000022030BD012082F83C0000BF022082F883
:102C10003D00106844681068816824F070041868EA
:102C2000044310684460144D1068A84213D0134D3B
:102C30001068A8420FD01068B0F1804F0BD0104D33
:102C40001068A84207D00F4D1068A84203D00E4D5F
:102C50001068A84205D121F080015868014310682E
:102C60008160012082F83D0000BF002082F83C0016
:102C700000BF00BFC5E70000002C01400034014048
:102C80000004004000080040000C004010B504465D
:102C90000CB9012010BD94F83D0028B9002084F83B
:102CA0003C00204600F026F8022084F83D00211D5B
:102CB000206802F09DFF012084F8460000BF84F8E0
:102CC0003E0001213F200155402001554120015582
:102CD00000BF00BF012084F842004320015544207A
:102CE00001554520015500BF012084F83D0000201A
:102CF000D0E7000010B586B0044600200290039093
:102D0000049005908849206888420DD100BF87480B
:102D1000806940F40060854988610846806900F454
:102D20000060019000BFFCE02068B0F1804F50D1FE
:102D300000BF7E48C06940F001007C49C861084678
:102D4000C06900F00100019000BF00BF00BF08464D
:102D5000806940F0040088610846806900F0040042
:102D6000019000BF00BF00BF0846806940F0080026
:102D700088610846806900F00800019000BF00BF2C
:102D80004FF400400290002003900220049002A91A
:102D90006748FFF7B3F80820029000200390022054
:102DA000049002A96348FFF7A9F800BF6249486888
:102DB00020F4407040F0E06040F48070486000BF54
:102DC000002205211C20FFF7FBFA1C20FFF7E8FA80
:102DD000A7E05A49206888422DD100BF5348C069F6
:102DE00040F002005149C8610846C06900F0020085
:102DF000019000BF00BF00BF0846806940F004009A
:102E000088610846806900F00400019000BF00BF9F
:102E1000C0200290002003900220049002A94448A0
:102E2000FFF76CF8002205211D20FFF7C9FA1D20CD
:102E3000FFF7B6FA75E04249206888422DD100BFFD
:102E40003A48C06940F004003849C8610846C06982
:102E500000F00400019000BF00BF00BF0846806979
:102E600040F0080088610846806900F00800019081
:102E700000BF00BFC02002900020039002200490F9
:102E800002A92C48FFF73AF8002205211E20FFF77F
:102E900097FA1E20FFF784FA43E02A492068884207
:102EA0002DD100BF2148C06940F008001F49C8610A
:102EB0000846C06900F00800019000BF00BF00BFD5
:102EC0000846806940F0040088610846806900F087
:102ED0000400019000BF00BF032002900020039077
:102EE0000220049002A91248FFF708F800220521E9
:102EF0003220FFF765FA3220FFF752FA11E012494B
:102F0000206888420DD100BF0848806940F4005015
:102F1000064988610846806900F40050019000BFAE
:102F200000BF06B010BD0000002C014000100240A0
:102F300000080140000C0140000001400004004076
:102F400000080040000C004000340140014691F8A8
:102F50003D00012801D001207047022081F83D008A
:102F60000868C06840F001000B68D860164B08681C
:102F7000984213D0154B086898420FD00868B0F1FA
:102F8000804F0BD0124B0868984207D0114B08684D
:102F9000984203D0104B086898420CD108688068AA
:102FA00000F00702062A0CD00868006840F0010013
:102FB0000B68186005E00868006840F001000B68C5
:102FC00018600020C8E70000002C014000340140D8
:102FD0000004004000080040000C00402DE9F041D2
:102FE00004460D4600BF94F83C00012802D102209F
:102FF000BDE8F081012084F83C0000BF022084F885
:103000003D002068866826F0770626F47F46206813
:1030100086602868502833D00CDC202850D004DC8F
:1030200000284BD0102851D149E0302849D0402801
:103030004CD139E060282DD0702807D0B0F5805FE2
:1030400003D0B0F5005F41D10DE040E0D5E90213B7
:103050006A68206802F02BFE2068866846F07706D2
:103060002068866033E0D5E902136A68206802F0C0
:103070001EFE2068806840F480402168886026E059
:10308000EA686968206802F003FF5021206802F0B6
:1030900019FE1CE0EA686968206802F04BFF6021B5
:1030A000206802F00FFE12E0EA686968206802F00A
:1030B000EFFE4021206802F005FE08E000BF00BFDF
:1030C00000BF2968206802F0FDFD00E000BF00BFDE
:1030D000012084F83D0000BF002084F83C0000BFC0
:1030E00000BF85E710B50446207FFB49496D884243
:1030F0007BD1F948006821688842F9D10020F7495E
:103100000870F748007810B101286FD17EE0F24ACC
:10311000B2F84C2091B2F04A906CFFF78FF8F14969
:10312000087020B94FF0FF30EF49086002E001203D
:10313000ED490860E848016D01F0A0FAEB4908602C
:1031400000BFE548006D40B9E3480068006A20F020
:103150000A00E1490968086221E0DF48006D04289F
:1031600008D1DD480068006A20F0A000DA4909684B
:10317000086214E0D848006D082808D1D6480068D5
:10318000006A20F40070D4490968086207E0D24858
:103190000068006A20F40050CF4909680862CE48F0
:1031A000006D40B9CC480068006A40F00200CA498E
:1031B0000968086223E0C848006D042808D1C648A1
:1031C0000068006A40F02000C3490968086216E000
:1031D000C148006D08280AD1BF480068006A40F461
:1031E0000070BD490968086209E00DE10BE1BA48C9
:1031F0000068006A40F40050B7490968086200BFDF
:10320000B7480078401CB6490870FCE0B248016D30
:1032100001F034FAB6490860AF48016D00F070FF64
:10322000AD4AB2F84C2091B2AB4A906CFFF706F869
:10323000B0490870AB4800780978884277D0AC482C
:103240000068AA49096888420BD2A84800684FF66E
:10325000FF71081AA64909680844401CA64908607D
:1032600006E0A3480068A1490968401AA24908601D
:10327000A248007830BBA0480068A1490978A14A5B
:1032800042F821009E480078401C9D49087008467D
:103290000078082836D1002009E097490968994A42
:1032A00052F820201144944A1160411CC8B20828E9
:1032B000F3DB91480068C0089349086001208F49FA
:1032C00008701FE00020904908601C228D49091DEC
:1032D000081FFCF7A5FF884800688A49C8610020DC
:1032E00009E085490968874A52F820201144824A3A
:1032F0001160411CC8B20828F3DB7F480068C00891
:1033000081490860814800687749096808447F4915
:1033100008600846006847F23051884208DB7C4864
:103320000068401C7A4908600020784908600CE079
:10333000764800687749884207DC75480068401E77
:1033400073490860002071490860002064490870D2
:103350006148016D00F01CFE00BF5F48006D40B980
:103360005D480068006A20F00A005B49096808624D
:1033700021E05948006D042808D157480068006AC8
:1033800020F0A00054490968086214E05248006D1A
:10339000082808D150480068006A20F400704E499F
:1033A0000968086207E04C480068006A20F4005091
:1033B0004949096808624848006D30B946480068C4
:1033C000006A4549096808621BE04348006D04280B
:1033D00006D141480068006A3F490968086210E068
:1033E0003D48006D082806D13B480068006A3A490C
:1033F0000968086205E038480068006A36490968CB
:10340000086200BF00BF00BF207F4349496D88426A
:1034100061D14148006821688842F9D100202F49D4
:1034200048702F48407810B1012877D1A1E03A4A7E
:10343000B2F84C2091B2384A906CFEF7FFFE294951
:10344000487020B94FF0FF302749486002E0012062
:10345000254948603048016D01F010F92349486062
:1034600000BF2D48006D40B92B480068006A20F06D
:103470000A0029490968086221E02748006D0428EC
:1034800008D125480068006A20F0A0002249096898
:10349000086214E02048006D082808D11E48006822
:1034A000006A20F400701C490968086207E01A48A5
:1034B0000068006A20F4005017490968086216483D
:1034C000006D60BB14480068006A40F002001249B9
:1034D0000968086246E04BE1B85B0020BC020020AE
:1034E000A8020020AC020020585D0020185D0020DA
:1034F000285D0020B0020020485D0020B4020020BA
:10350000B8020020885D0020385D0020685D002042
:10351000785D0020D08AFFFF105C002027E1FFE7E4
:10352000FE48006D042808D1FC480068006A40F09D
:103530002000FA490968086214E0F848006D08287C
:1035400008D1F6480068006A40F40070F349096841
:10355000086207E0F1480068006A40F40050EF4953
:103560000968086200BFEE484078401CEC4948708A
:10357000FDE0EA48016D01F081F8EA494860E7485A
:10358000016D00F0BDFDE54AB2F84C2091B2E34A6E
:10359000906CFEF753FEE4494870E448407849785F
:1035A000884278D0DF484068E149496888420BD2B8
:1035B000DF4840684FF6FF71081ADA494968084445
:1035C000401CDC49486006E0D6484068D849496854
:1035D000401AD8494860D848407830BBD54841683F
:1035E000D6484278D64840F82210D4484078401C4B
:1035F000D249487008464078082837D1002009E0B1
:10360000CC494A68CE4951F820101144C94A51604A
:10361000411CC8B20828F3DBC6484068C008C94945
:1036200048600120C449487020E00020C549486036
:103630001C22C349091D081FFCF7F2FDBD48416863
:10364000BF482038C163002009E0BA494A68BC4934
:1036500051F820101144B74A5160411CC8B20828E3
:10366000F3DBB4484068C008B6494860B6484068D3
:10367000B64949680844B44948600846406847F27A
:103680003051884208DBB2484068401CB04948606D
:103690000020AD4948600CE0AB484068AD49884225
:1036A00007DCAB484068401EA94948600020A64995
:1036B000486000209A4948709848016D00F068FC05
:1036C00000BF9648006D40B994480068006A20F039
:1036D0000A0092490968086221E09048006D0428B8
:1036E00008D18E480068006A20F0A0008B49096864
:1036F000086214E08948006D082808D187480068EE
:10370000006A20F4007085490968086207E0834870
:103710000068006A20F400508049096808627F4808
:10372000006D30B97D480068006A7C49096808620C
:103730001BE07A48006D042806D178480068006ACA
:1037400076490968086210E07448006D082806D1BF
:1037500072480068006A71490968086205E06F48AC
:103760000068006A6D490968086200BF00BF00BFB9
:10377000207F7949496D88427BD17748006821686C
:103780008842F9D10020754988706548807810B169
:1037900001286FD17EE0704AB2F84C2091B26E4A97
:1037A000906CFEF74BFD6149887020B94FF0FF30F7
:1037B0006649886002E00120644988606648016DBE
:1037C00000F05CFF5A49886000BF6348006D40B953
:1037D00061480068006A20F00A005F4909680862D1
:1037E00021E05D48006D042808D15B480068006A4C
:1037F00020F0A00058490968086214E05648006D9E
:10380000082808D154480068006A20F40070524922
:103810000968086207E050480068006A20F4005018
:103820004D49096808624C48006D40B94A48006833
:10383000006A40F0020048490968086223E04648EF
:10384000006D042808D144480068006A40F0200058
:1038500041490968086216E03F48006D08280AD10E
:103860003D480068006A40F400703B4909680862FE
:1038700009E034E132E138480068006A40F4005061
:1038800035490968086200BF25488078401C2449F2
:10389000887023E13048016D00F0F0FE2149886016
:1038A0002D48016D00F02CFC2B4AB2F84C2091B24F
:1038B000294A906CFEF7C2FC1B4988701B4880782F
:1038C0008978884277D01748806819498968884282
:1038D0000BD2174880684FF6FF71081A11498968A2
:1038E0000844401C1349886006E00E48806810496F
:1038F0008968401A0F4988600F48807880BB0D485E
:1039000081680E4882780E48203040F822100B481B
:103910008078401C09498870084622E0105C00202D
:10392000A8020020285D0020B0020020AC02002088
:10393000185D0020485D0020B4020020B80200207D
:10394000A85D0020385D0020685D0020585D0020E3
:10395000785D0020D08AFFFF685C0020BC02002058
:1039600019E08078082838D1002009E0FE498A68EB
:10397000FE4951F820101144FB4A9160411CC8B225
:103980000828F3DBF8488068C008F94988600120FE
:10399000F849887021E00020F54988601C22F3492D
:1039A000091D081FFCF73CFCEF488168EF484038D0
:1039B000C16500200AE033E0EB498A68EB4951F821
:1039C00020101144E84A9160411CC8B20828F3DB7A
:1039D000E5488068C008E6498860E7488068E749AC
:1039E00089680844E44988600846806847F2305195
:1039F000884208DBE2488068401CE149886000207A
:103A0000DD4988600CE0DC488068DE49884207DCDC
:103A1000DB488068401EDA4988600020D64988600B
:103A20000020D9498870D948016D00F0B1FA00BF73
:103A3000D648006D40B9D5480068006A20F00A00F9
:103A4000D2490968086221E0D048006D042808D1F5
:103A5000CE480068006A20F0A000CC4909680862DE
:103A600014E0CA48006D082808D1C8480068006AF8
:103A700020F40070C5490968086207E0C34800687F
:103A8000006A20F40050C14909680862BF48006D0F
:103A900030B9BE480068006ABC49096808621BE08A
:103AA000BA48006D042806D1B8480068006AB749D2
:103AB0000968086210E0B548006D082806D1B348CF
:103AC0000068006AB1490968086205E0AF4800680B
:103AD000006AAE490968086200BF00BF00BF207FCE
:103AE000AB49496D88426ED1A94800682168884277
:103AF000F9D10020A749C870A348C07810B10128A7
:103B00006FD17EE0A24AB2F84C2091B2A04A906CEC
:103B1000FEF794FBA049C87020B94FF0FF309749D9
:103B2000C86002E001209549C8609948016D00F025
:103B3000A5FD9A49C86000BF9548006D40B99448FA
:103B40000068006A20F00A0091490968086221E0D3
:103B50008F48006D042808D18D480068006A20F065
:103B6000A0008B490968086214E08948006D0828A4
:103B700008D187480068006A20F400708449096809
:103B8000086207E082480068006A20F4005080491B
:103B9000096808627E48006D40B97D480068006A87
:103BA00040F002007A490968086223E07848006D15
:103BB000042809D176480068006A40F02000744962
:103BC0000968086216E042E17148006D082809D1D1
:103BD0006F480068006A40F400706D490968086227
:103BE00008E033E16A480068006A40F40050684920
:103BF0000968086200BF6448C078401C6249C87008
:103C000024E16348016D00F039FD6549C8606048F2
:103C1000016D00F075FA5E4AB2F84C2091B25C4A30
:103C2000906CFEF70BFB5F49C8705B48C078C978A1
:103C300088427BD05A48C0685849C96888420BD22C
:103C40005648C0684FF6FF71081A5549C9680844BC
:103C5000401C4549C86006E05148C0684F49C968E2
:103C6000401A4149C8604348C07840BB3E48C168DB
:103C70004D48C2783D48203040F822104A48C0786C
:103C8000401C4949C8700846C078082839D100202E
:103C90000AE03549CA683549203151F820101144ED
:103CA000314AD160411CC8B20828F2DB2E48C068F6
:103CB000C0082F49C86001202E49C87021E00020AB
:103CC0002B49C8601C2229492431081FFCF7A8FA97
:103CD0002548C16825484038C16700200AE02249CC
:103CE000CA682249203151F8201011441E4AD1607F
:103CF000411CC8B20828F2DB1B48C068C0081C4938
:103D0000C8601D48C0681D49C96808441A49C86090
:103D10000846C06847F23051884208DB1848C0683E
:103D2000401C1749C86000201349C8600CE01248C5
:103D3000C0681449884207DC1148C068401E104919
:103D4000C86000200C49C86000200F49C8701048A6
:103D5000016D00F01DF900BF0D48006D18B90C4849
:103D60000068006A22E027E0485D0020C85D00206E
:103D7000385D0020B4020020685D0020585D0020FE
:103D8000785D0020D08AFFFFA8020020685C002038
:103D9000C05C0020BC020020AC020020185D0020A6
:103DA000285D0020B0020020B802002020F00A00A8
:103DB00027490968086221E02548006D042808D1D8
:103DC00023480068006A20F0A000214909680862C1
:103DD00014E01F48006D082808D11D480068006ADB
:103DE00020F400701A490968086207E01848006862
:103DF000006A20F400501649096808621448006DF2
:103E000030B913480068006A1149096808621BE06C
:103E10000F48006D042806D10D480068006A0C495F
:103E20000968086210E00A48006D082806D10848B1
:103E30000068006A06490968086205E004480068ED
:103E4000006A03490968086200BF00BF00BF10BDD7
:103E5000C05C00202DE9F04104460D46164600BF27
:103E600094F83C00012802D10220BDE8F081012035
:103E700084F83C0000BF96B9EB68D5E900122068D1
:103E800002F01AF82068806920F00C00216888612F
:103E900020688069A9680843216888613DE0042E94
:103EA00013D1EB68D5E90012206802F057F82068BA
:103EB000806920F440602168886120688069A96871
:103EC00040EA01202168886127E0082E12D1EB68C2
:103ED000D5E90012206802F05EF82068C06920F081
:103EE0000C002168C8612068C069A968084321687E
:103EF000C86112E0EB68D5E90012206802F067F8AB
:103F00002068C06920F440602168C8612068C069E9
:103F1000A96840EA01202168C86100BF002084F838
:103F20003C0000BF00BFA0E710B504460CB901205B
:103F300010BD94F83D0028B9002084F83C002046CC
:103F400000F025F8022084F83D00211D206801F0D2
:103F50004FFE012084F8460000BF84F83E00012196
:103F60003F200155402001554120015500BF00BFB1
:103F7000012084F84200432001554420015545208A
:103F8000015500BF012084F83D000020D0E77047B4
:103F90002DE9F04104460D4615B994F83E000BE0BA
:103FA000042D02D13F20005D06E0082D02D1402003
:103FB000005D01E04120005D074615B994F842001C
:103FC0000BE0042D02D14320005D06E0082D02D154
:103FD0004420005D01E04520005D8046012F02D1B4
:103FE000B8F1010F02D00120BDE8F0811DB9022017
:103FF00084F83E000EE0042D03D102213F2001553C
:1040000008E0082D03D102214020015502E00221E1
:10401000412001551DB9022084F842000EE0042D14
:1040200003D102214320015508E0082D03D10221CC
:104030004420015502E002214520015535B1042DEF
:104040000BD0082D10D00C2D1CD114E02068C068B6
:1040500040F002002168C86015E02068C06840F0A8
:1040600004002168C8600EE02068C06840F00800C5
:104070002168C86007E02068C06840F0100021682F
:10408000C86000E000BF00BF01222946206801F09F
:10409000FDFD16492068884213D0154920688842E2
:1040A0000FD02068B0F1804F0BD0124920688842B1
:1040B00007D011492068884203D0104920688842FF
:1040C0000CD12068806800F00706062E0CD020680E
:1040D000006840F001002168086005E02068006881
:1040E00040F001002168086000207DE7002C0140BD
:1040F000003401400004004000080040000C004073
:1041000030B504460D4635B1042D0BD0082D10D026
:104110000C2D1CD114E02068C06820F0020021683A
:10412000C86015E02068C06820F004002168C860FD
:104130000EE02068C06820F008002168C86007E031
:104140002068C06820F010002168C86000E000BF4F
:1041500000BF00222946206801F098FD00BF2068BA
:10416000006A41F21111084050B92068006A8910B4
:10417000084028B92068006820F001002168086024
:1041800000BF1DB9012084F83E000EE0042D03D1CC
:1041900001213F20015508E0082D03D101214020D5
:1041A000015502E00121412001551DB9012084F88B
:1041B00042000EE0042D03D101214320015508E007
:1041C000082D03D101214420015502E001214520A1
:1041D0000155002030BD10B5044620680069C0F3C9
:1041E0004000D8B12068C068C0F34000B0B16FF0A3
:1041F000020021680861012020772068806900F0B2
:10420000030018B12046FEF76DFF05E0204600F0E0
:10421000FBF8204600F0ABF9002020772068006909
:10422000C0F38000D8B12068C068C0F38000B0B18E
:104230006FF00400216808610220207720688069FF
:1042400000F4407018B12046FEF74CFF05E0204610
:1042500000F0DAF8204600F08AF900202077206884
:104260000069C0F3C000D8B12068C068C0F3C000C6
:10427000B0B16FF008002168086104202077206841
:10428000C06900F0030018B12046FEF72BFF05E0DF
:10429000204600F0B9F8204600F069F900202077A8
:1042A00020680069C0F30010D8B12068C068C0F36E
:1042B0000010B0B16FF0100021680861082020776D
:1042C0002068C06900F4407018B12046FEF70AFF6C
:1042D00005E0204600F098F8204600F048F900205C
:1042E00020772068006900F0010058B12068C0689C
:1042F00000F0010030B16FF0010021680861204634
:1043000000F0B0F920680069C0F3C01058B120680F
:10431000C068C0F3C01030B16FF080002168086140
:104320002046FEF729FC20680069C0F3801058B1D0
:104330002068C068C0F3801030B16FF04000216881
:104340000861204600F0B3F920680069C0F340100E
:1043500058B12068C068C0F3401030B16FF0200041
:10436000216808612046FEF708FC10BD10B586B034
:104370000446002002900390049005901D49206897
:10438000884218D100BF1C48806940F004001A49D7
:1043900088610846806900F00400019000BF00BFFA
:1043A0004FF47060029002200390059002A9134818
:1043B000FDF7A4FD1BE012492068884217D100BF19
:1043C0000D48806940F010000B49886108468069FB
:1043D00000F01000019000BF00BF4FF47070029019
:1043E00002200390059002A90648FDF787FD06B05C
:1043F00010BD0000002C01400010024000080140E8
:104400000034014000100140704770B504460D466D
:10441000164600BF94F83C00012801D1022070BD6F
:10442000012084F83C0000BF36B1042E1BD0082EBA
:1044300031D00C2E5ED145E02946206801F04CFCBD
:104440002068806940F008002168886120688069E0
:1044500020F0040021688861206880692969084388
:104460002168886147E02946206801F06DFC2068DA
:10447000806940F40060216888612068806920F4C8
:1044800080602168886120688069296940EA01208C
:10449000216888612FE02946206801F093FC20689C
:1044A000C06940F008002168C8612068C06920F038
:1044B00004002168C8612068C0692969084321682F
:1044C000C86118E02946206801F0B8FC2068C0697E
:1044D00040F400602168C8612068C06920F48060F1
:1044E0002168C8612068C069296940EA0120216803
:1044F000C86100E000BF00BF00BF002084F83C009E
:1045000000BF00BF8BE710B504460CB9012010BDF9
:1045100094F83D0028B9002084F83C00204600F0C3
:1045200025F8022084F83D00211D206801F060FB81
:10453000012084F8460000BF84F83E0001213F209E
:104540000155402001554120015500BF00BF012009
:1045500084F842004320015544200155452001556F
:1045600000BF012084F83D000020D0E7704770476D
:1045700070B504460D4615B994F83E000BE0042DC5
:1045800002D13F20005D06E0082D02D14020005DF1
:1045900001E04120005D012801D0012070BD1DB95E
:1045A000022084F83E000EE0042D03D102213F20BA
:1045B000015508E0082D03D102214020015502E0F9
:1045C00002214120015501222946206801F05EFBAD
:1045D0001F492068884203D01E492068884201D1C3
:1045E000012000E0002028B12068406C40F4004029
:1045F0002168486416492068884213D0154920680C
:1046000088420FD02068B0F1804F0BD0124920684B
:10461000884207D011492068884203D01049206899
:1046200088420CD12068806800F00706062E0CD066
:104630002068006840F001002168086005E02068FB
:10464000006840F00100216808600020A6E7000033
:10465000002C0140003401400004004000080040EC
:10466000000C004010B5044603492068884201D17F
:10467000FDF702FE10BD00000014004002460020BD
:1046800031B1042907D0082908D00C290CD108E041
:104690001368586B09E01368986B06E01368D86BD1
:1046A00003E01368186C00E000BF00BF704770475C
:1046B000704770B50446002520684069C0F3C015F6
:1046C00094F83D0021280ED16DB12068406920F09A
:1046D000800021684861606B10B1606BFDF7AEF837
:1046E000204601F07EFE20684069C0F3801594F8F2
:1046F0003E0022280ED16DB12068406920F04000B4
:1047000021684861A06B10B1A06BFDF797F82046B7
:1047100001F03CFE002070BD704700002DE9F84F0D
:104720000446206805682068C668206847694FF01D
:104730000009CA4605F00F09B9F1000F0AD105F0CA
:10474000200038B106F0200020B1204601F053FED1
:10475000BDE8F88FB9F1000F71D007F0010018B96A
:1047600006F4907000286AD005F0010030B106F41C
:10477000807018B1206C40F00100206405F0040046
:1047800030B107F0010018B1206C40F00200206445
:1047900005F0020030B107F0010018B1206C40F0C4
:1047A0000400206405F0080048B106F0200010B9AC
:1047B00007F0010018B1206C40F008002064206C64
:1047C00068B305F0200028B106F0200010B12046A3
:1047D00001F011FE20684069C0F3801A206C00F0DF
:1047E000080010B9BAF1000F22D0204601F0CEFD2A
:1047F0002068406900F04000B0B12068406920F0B6
:10480000400021684861A06B50B15648A16B4863D5
:10481000A06BFDF73FF810B1A06B416B88470CE02F
:104820002046FFF779FF08E02046FFF775FF04E018
:104830002046FFF771FF0020206489E7FFE7206B27
:10484000012878D105F01000002874D006F010007F
:10485000002870D000BF0020009020680068009001
:1048600020684068009000BF00BF2068406900F0E9
:104870004000C0B3A06B006840681FFA80F8B8F130
:10488000000F2FD0A08D40452CDDA4F82E80A06B0A
:10489000806920281FD02068C06820F480702168BB
:1048A000C8602068406920F00100216848612068E4
:1048B000406920F0400021684861202084F83E00D3
:1048C000002020632068C06820F010002168C860C4
:1048D000A06BFCF7B3FFA08DE28D801A81B2204659
:1048E000FFF7E6FE34E7FFE7A08DE18D401A1FFADF
:1048F00080F8E08DE8B1B8F1000F1AD02068C068E8
:1049000020F490702168C8602068406920F00100A0
:1049100021684861202084F83E0000202063206840
:10492000C06820F010002168C86041462046FFF7AB
:10493000BFFE0DE7FFE705F0800030B106F0800014
:1049400018B1204601F094FE02E705F0400030B1B6
:1049500006F0400018B1204601F033FDF8E600BF34
:10496000F6E60000A162000810B504460CB901206B
:1049700010BDA06900B100E000BF94F83D0028B967
:10498000002084F83C00204600F028F8242084F819
:104990003D002068C06820F400502168C8602046AF
:1049A00001F09CFD2068006920F4904021680861B6
:1049B0002068406920F02A00216848612068C068AA
:1049C00040F400502168C86000202064202084F852
:1049D0003D0084F83E000020CAE7000010B586B014
:1049E000044600200290039004900590AA49206894
:1049F000884250D100BFA948C06940F40020A749AF
:104A0000C8610846C06900F40020019000BF00BFE3
:104A100000BF0846806940F0100088610846806940
:104A200000F01000019000BF00BF081502900220A6
:104A300003900320059002A99948FDF75FFA4FF40F
:104A40000060029000200390049002A99448FDF7B2
:104A500055FA944894490860002048600021924823
:104A600081608021C1600021016141618161C1617A
:104A7000FDF7B0F908B1FCF7B3FD00BF8A48A063A9
:104A8000446200BF002205213420FDF799FC342048
:104A9000FDF786FCFEE085492068884243D100BFCF
:104AA0007E48C06940F480107C49C8610846C069EE
:104AB00000F48010019000BF00BF00BF084680696D
:104AC00040F0100088610846806900F010000190F5
:104AD00000BF00BF00BF0846806940F02000886129
:104AE0000846806900F02000019000BF00BF8814D4
:104AF0000290022003900320059002A96848FDF768
:104B0000FDF90420029000200390049002A9684857
:104B1000FDF7F4F9002205213520FDF751FC352081
:104B2000FDF73EFCB6E063492068884250D100BFE3
:104B30005A48C06940F480205849C8610846C06995
:104B400000F48020019000BF00BF00BF08468069CC
:104B500040F0080088610846806900F00800019074
:104B600000BF00BF081502900220039003200590AB
:104B700002A95148FDF7C2F94FF4006002900020ED
:104B80000390049002A94C48FDF7B8F94B484C49F2
:104B90000860002048600021494881608021C16090
:104BA0000021016141618161C161FDF713F908B123
:104BB000FCF716FD00BF4248A063446200BF00221C
:104BC00004212720FDF7FCFB2720FDF7E9FB61E02E
:104BD0003C49206888425DD100BF3048806940F080
:104BE00004002E4988610846806900F004000190A5
:104BF00000BF00BF00BF0846C06940F40030C86174
:104C00000846C06900F40030019000BF00BF00BF3B
:104C10000846806940F0010088610846806900F01C
:104C20000100019000BF00BF042002900220039009
:104C3000012004900320059002A92348FDF75EF9A6
:104C4000082002900020039002A91F48FDF756F9A2
:104C50001A483C301D4908600020486000211B486C
:104C600081608021C1600021016141618161C16178
:104C7000FDF7B0F808B1FCF7B3FC00BF1348A06320
:104C8000446200BF2620FDF78BFB01220521262070
:104C9000FDF796FB06B010BD004C0040001002402E
:104CA0000010014030040240D407002000500040B2
:104CB0000014014000480040000C01403000024058
:104CC0001808002000440040000801405C08002053
:104CD00070B504460D46164694F83E00202816D1BD
:104CE00005B10EB9012070BD00BF94F83C00012849
:104CF00001D10220F7E7012084F83C0000BF00202A
:104D0000206332462946204601F066FCEBE702208C
:104D1000E9E770477047704700BFFEE710B5002213
:104D200002210E48FDF79CFA012000F04DFE002202
:104D300001210A48FDF794FA022002F06FFB0122DC
:104D400002210648FDF78CFA022002F067FB0022E0
:104D500002210248FDF784FA10BD0000000C01405A
:104D600000B585B000BF1248806940F008001049C6
:104D700088610846806900F00800009000BF00BF0D
:104D8000032001900120029003900320049001A9C8
:104D90000848FDF7B3F8012211460648FDF760FA0E
:104DA000012202210348FDF75BFA05B000BD0000B7
:104DB00000100240000C014010B5002202210E48F4
:104DC000FDF74EFA012000F0FFFD012211460A48CE
:104DD000FDF746FA022002F021FB012202210648DB
:104DE000FDF73EFA022002F019FB002202210248E0
:104DF000FDF736FA10BD0000000C014070B5054605
:104E00000024002000F0E0FD00261AE0002202212C
:104E10001148FDF725FA022002F000FB01220221D1
:104E20000D48FDF71DFA6006040E01210A48FDF742
:104E300005FA08B1601CC4B2012002F0EFFA701C40
:104E4000C6B2082EE2DB15B9FFF7B6FF01E0FFF7A7
:104E500065FF204670BD0000000C014070B504469F
:104E6000012000F0B1FD002202211648FDF7F8F9FB
:104E7000002523E0E00928B1012211461148FDF781
:104E8000EFF904E0002201210E48FDF7E9F9600680
:104E9000040E022002F0C2FA012202210948FDF7A5
:104EA000DFF9022002F0BAFA002202210548FDF7DC
:104EB000D7F9022002F0B2FA681CC5B2082DD9DB7E
:104EC00070BD0000000C014010B5012000F07CFD19
:104ED000012211460C48FDF7C3F9012202210A48BC
:104EE000FDF7BEF9042002F099FA002201210648DC
:104EF000FDF7B6F9042002F091FA002202210248DF
:104F0000FDF7AEF910BD0000000C014010B5012006
:104F100000F05AFD002202210C48FDF7A1F9002201
:104F200001210A48FDF79CF9042002F077FA0122DA
:104F300002210648FDF794F9012211460348FDF7C6
:104F40008FF9042002F06AFA10BD0000000C014045
:104F500010B50024002000F037FD01221146124850
:104F6000FDF77EF9012002F059FA012202210E48D4
:104F7000FDF776F9012002F051FA07E0601CC4B297
:104F8000FA2C03DDFFF7C2FF012010BD0121064806
:104F9000FDF754F90028F1D1002202210248FDF763
:104FA0005FF90020F1E70000000C014000B585B07A
:104FB0000020019002900390049000BF1048806987
:104FC00040F010000E4988610846806900F010002A
:104FD000009000BF00BF00224FF400510948FDF7C8
:104FE0003FF94FF4005001900120029000200390FF
:104FF0000220049001A90348FCF780FF05B000BD22
:10500000001002400010014010B54FF4005102485A
:10501000FDF71CF910BD0000001001402DE9FE4F06
:1050200005460E4690464FF000090024A346002096
:105030000290824600BF4FF400714A48FDF7FEF827
:1050400004434FF480714748FDF7F8F844EA400400
:1050500020214448FDF7F2F844EA80044FF400416F
:105060004148FDF7EBF844EAC0044FF480413E4864
:10507000FDF7E4F844EA001410213A48FDF7DEF8A1
:1050800044EA401410213948FDF7D8F844EA801466
:1050900020213648FDF7D2F844EAC0143448048091
:1050A000002014E0298801228240114069B1029950
:1050B000491CC9B202912988421C0123934019401E
:1050C00019B90BF1010101F0FF0B411CC8B2B0424C
:1050D000E8DB85F809B00298287208F0FF071EE0A7
:1050E0002888711EC91B084100F0010050444FFA86
:1050F00080FA2988721ED21B114101F00100FBF7D2
:1051000011FB00901B4850F827100098FBF712F98C
:1051100049460190FBF7B6F88146781CC7B2A6EB6A
:105120000800B842DCDCBAF1000F08D1002028806A
:105130000F494860487208720120BDE8FE8F0E4892
:105140008078012808D05046FBF7ECFA074639462C
:105150004846FBF721F981460548C0F80490002035
:10516000EBE70000000C0140001001400008014086
:10517000D8590020FCB700089A02002008B500BFEB
:105180001948406940F002001749486108464069E3
:1051900000F00200009000BF00BF00BF0846406959
:1051A00040F0010048610846406900F001000090AD
:1051B00000BF00BF002203213A20FDF701F93A2089
:1051C000FDF7EEF8002202210D20FDF7F9F80D2081
:1051D000FDF7E6F8002205211020FDF7F1F8102078
:1051E000FDF7DEF808BD00000010024000B585B0F4
:1051F0000020019002900390049000BF3548806920
:1052000040F02000334988610846806900F02000A2
:10521000009000BF00BF00BF0846806940F0040056
:1052200088610846806900F00400009000BF00BF5C
:1052300000BF0846806940F0080088610846806920
:1052400000F00800009000BF00BF00BF0846806962
:1052500040F0100088610846806900F0100000905E
:1052600000BF00BF4FF44C7001900020029002205C
:10527000039001A91848FCF741FE2020019000206E
:1052800002900220039001A91348FCF737FE4FF467
:1052900040400190002002900220039003200490DF
:1052A00001A90E48FCF72AFE102001900020029070
:1052B0000220039001A90A48FCF720FE102001906B
:1052C00000200290039001A90348FCF717FE05B0E7
:1052D00000BD000000100240000C01400010014021
:1052E0000008014000B595B0002011901290139075
:1052F00014900F9010901C2108A8FAF7B8FF2021F5
:105300006846FAF7B4FF374837490860002048601C
:1053100000213548816041F61F41C16000210161D3
:10532000416180218161FDF7B1FC08B1FCF758F9BA
:105330004FF48050119011A92B48FDF74FFE08B192
:10534000FCF74EF92848FFF7DEF808B1FCF748F9FA
:1053500000200F9010900FA92348FDF749FC08B1D9
:10536000FCF73EF960200890002009900A900B900D
:105370000C900D900E90002208A91B48FFF745F8ED
:1053800008B1FCF72DF9042208A91748FFF73DF8EA
:1053900008B1FCF725F9082208A91348FFF735F8EA
:1053A00008B1FCF71DF90C2208A90F48FFF72DF8EA
:1053B00008B1FCF715F900200090019002900390CD
:1053C00004904FF40050059000200790694606486D
:1053D000FDF7D4FB08B1FCF703F90348FEF7C6FF5D
:1053E00015B000BD002C01401405002000B58BB0A5
:1053F00000200790089009900A900590069001906F
:105400000290039004904FF08040234908604720A9
:1054100048600021204881604FF6FF71C160002183
:10542000016180218161FDF731FC08B1FCF7D8F8FA
:105430004FF48050079007A91748FDF7CFFD08B13A
:10544000FCF7CEF81448FEF76FFD08B1FCF7C8F87A
:1054500000200590069005A90F48FDF7C9FB08B18B
:10546000FCF7BEF80020019001200290002003907C
:105470000490002201A90848FEF7ECFC08B1FCF7F3
:10548000AFF8042201A90448FEF7E4FC08B1FCF7D8
:10549000A7F80BB000BD00005C05002000B58BB084
:1054A00000200790089009900A90059006900190BE
:1054B00002900390049023482349086047204860E5
:1054C0000021214881604FF6FF71C1600021016118
:1054D00080218161FDF7DAFB08B1FCF781F84FF418
:1054E0008050079007A91848FDF778FD08B1FCF730
:1054F00077F81548FEF718FD08B1FCF771F80020A1
:105500000590069005A91048FDF772FB08B1FCF75D
:1055100067F8002001900120029000200390049081
:10552000002201A90848FEF795FC08B1FCF758F8DD
:10553000042201A90448FEF78DFC08B1FCF750F8DD
:105540000BB000BD00040040A405002000B58BB0E6
:1055500000200790089009900A900590069001900D
:105560000290039004902348234908604720486034
:105570000021214881604FF6FF71C1600021016167
:1055800080218161FDF782FB08B1FCF729F84FF417
:105590008050079007A91848FDF720FD08B1FCF7D7
:1055A0001FF81548FEF7C0FC08B1FCF719F80020F9
:1055B0000590069005A91048FDF71AFB08B1FCF705
:1055C0000FF8002001900120029000200390049029
:1055D000002201A90848FEF73DFC08B1FCF700F8DD
:1055E000042201A90448FEF735FC08B1FBF7F8FFD7
:1055F0000BB000BD00080040EC05002000B58BB0EA
:1056000000200790089009900A900590069001905C
:105610000290039004902348234908604720486083
:105620000021214881604FF6FF71C16000210161B6
:1056300080218161FDF72AFB08B1FBF7D1FF4FF410
:105640008050079007A91848FDF7C8FC08B1FBF780
:10565000C7FF1548FEF768FC08B1FBF7C1FF002043
:105660000590069005A91048FDF7C2FA08B1FBF7AE
:10567000B7FF0020019001200290002003900490C9
:10568000002201A90848FEF7E5FB08B1FBF7A8FFD7
:10569000042201A90448FEF7DDFB08B1FBF7A0FFD7
:1056A0000BB000BD000C00403406002000B595B0E2
:1056B000002011901290139014900F9010901C21C4
:1056C00008A8FAF7D4FD20216846FAF7D0FD37483C
:1056D000374908600020486000213548816041F664
:1056E0001F41C16000210161416180218161FDF79D
:1056F000CDFA08B1FBF774FF4FF48050119011A957
:105700002B48FDF76BFC08B1FBF76AFF2848FEF752
:10571000FAFE08B1FBF764FF00200F9010900FA96C
:105720002348FDF765FA08B1FBF75AFF602008909F
:10573000002009900A900B900C900D900E90002282
:1057400008A91B48FEF761FE08B1FBF749FF0422D8
:1057500008A91748FEF759FE08B1FBF741FF0822D8
:1057600008A91348FEF751FE08B1FBF739FF0C22D8
:1057700008A90F48FEF749FE08B1FBF731FF0020EA
:10578000009001900290039004904FF40050059017
:105790000020079069460648FDF7F0F908B1FBF7CD
:1057A0001FFF0348FEF7E2FD15B000BD00340140C5
:1057B0007C06002010B50B480B4908604FF4E1301F
:1057C0004860002108488160C16001610C2141618D
:1057D00000218161C161FFF7C7F808B1FBF700FF45
:1057E00010BD0000004C0040C406002010B50B485E
:1057F0000B4908604FF4165048600021084881604A
:10580000C16001610C21416100218161C161FFF72B
:10581000ABF808B1FBF7E4FE10BD000000500040FB
:105820000807002010B50B480B4908604FF46120B1
:105830004860002108488160C16001610C2141611C
:1058400000218161C161FFF78FF808B1FBF7C8FE45
:1058500010BD0000004800404C07002000BFFEE7DC
:1058600000BFFEE708B508490968C9084FF47A7215
:10587000B1FBF2F14143009100BF00BF00994A1E05
:1058800000920029F9D108BD0C00002030B585B088
:1058900004460020019002900390049000BF194834
:1058A000806940F02000174988610846806900F04F
:1058B0002000009000BF00BFFFF752FA0022022133
:1058C0001148FCF7CDFC022001900120029002203B
:1058D00003900320049001A90B48FCF70FFB112152
:1058E000002000F031F8204601F09CFE05462946D4
:1058F000FE2000F029F80121002000F025F805B075
:1059000030BD0000001002400010014070B5044698
:105910000025FFF7D9FAE020FFF7A0FAFFF718FB00
:105920002046FFF79BFAFFF713FBFFF7CDFAE120C4
:10593000FFF794FAFFF70CFB0020FFF75FFA05462C
:10594000FFF7E4FA284670BD70B505460C46FFF730
:10595000BBFAE020FFF782FAFFF7FAFA2846FFF7D2
:105960007DFAFFF7F5FA2046FFF778FAFFF7F0FA2D
:10597000FFF7CCFA0A2001F043FD70BD70B5054673
:105980000C46A100891DC8B20021FFF7DDFFA10070
:10599000C91DC8B20021FFF7D7FFE9B2A200083243
:1059A000D0B2FFF7D1FF2912A2000932D0B2FFF71F
:1059B000CBFFA1000831C8B2FFF7A8FF014908706A
:1059C00070BD0000330200201FB50446012C08D131
:1059D0000090019002900320039069460848FCF76C
:1059E0008DFA5CB901200090002001900220029005
:1059F0000320039069460248FCF780FA1FBD0000AF
:105A0000000C014010B5044605F02EFA03F0A4F88E
:105A100004F0ECF80348006805F064FB05F04EFA6A
:105A200010BD0000A40200201CB505482021002361
:105A30000A01CDE9001003A1054805F019FD1CBDC0
:105A4000A402002053746172745F7461736B000070
:105A5000055A000810B500BF502080F31188BFF32D
:105A60004F8FBFF36F8F00BF05F096FD18B14FF059
:105A700080500449086000BF002080F3118800BFF7
:105A800010BD000004ED00E000B58FB0282105A88E
:105A9000FAF7EDFB14216846FAF7E9FB01200590BF
:105AA00000040690002007900120099002200C902D
:105AB000C1030D914FF4E0110E9105A8FCF72AFEE9
:105AC00008B1FBF78DFD0F2000900220019000200F
:105AD00002904FF4806003900020049002216846F9
