:020000040800F2
:100000004807002005010008AD32000863290008F8
:10001000A932000839080008F53C0008000000007B
:100020000000000000000000000000008D34000807
:100030007908000800000000B13200088F34000881
:100040001F0100081F0100081F0100081F01000810
:100050001F0100081F0100081F0100081F01000800
:100060001F0100081F0100081F0100081F010008F0
:100070001F0100081F0100081F0100081F010008E0
:100080003D0800081F0100081F0100081F010008AB
:100090001F0100081F0100081F0100081F010008C0
:1000A0001F0100081F0100081F010008013500089A
:1000B000113500081F010008213500081F01000844
:1000C0001F0100081F0100081F0100081F01000890
:1000D0001F0100081F010008313C0008E53C000832
:1000E0001F0100081F0100081F010008DFF810D0E1
:1000F00000F090FB0048004719410008AFF3008072
:10010000480700200648804706480047FEE7FEE70C
:10011000FEE7FEE7FEE7FEE7FEE7FEE7FEE7FEE7B7
:10012000FD340008ED000008202A04DB203A21FA03
:1001300002F00021704721FA02F3D040C2F1200200
:10014000914008431946704710B5431A934209D2AB
:100150008318881803E010F8011D03F8011D521ED2
:10016000F9D210BD40EA01039B0703D009E008C99A
:10017000121F08C0042AFAD203E011F8013B00F86C
:10018000013B521EF9D210BDD2B201E000F8012BA2
:10019000491EFBD270470022F6E710B513460A4607
:1001A00004461946FFF7F0FF204610BDF0B480EA80
:1001B0000102D40F4200B2EB410F02D202460846C0
:1001C00011464A0042D0C30DDDB2C1F3C752AD1A89
:1001D000202D35DAC1F3160141F4000204B1524278
:1001E000C5F1200602FA06F12A411044B3EBD05FB4
:1001F00023D0C4B1012DA0EBC35009DCF0BC4FF0FB
:10020000004202EAC352DBB200F5000000F05FBA20
:10021000400000F1807000EBC350A0F1807040EA14
:10022000D170490009E0490841EAC071A0EBC35010
:1002300000F50000400800EBC350F0BC00F03EBAEF
:100240006142012202EB4101001BF6E7F0BC70475E
:1002500081F00041AAE780F00040A7E780EA0102B0
:1002600010B502F00043400022D04A001FD0010E1A
:1002700001EB1261C0F35600C2F3560240F40000D5
:1002800042F40002A0FB022000047F39140400D0D5
:10029000401C50EA124001D44000491EC2B20C0674
:1002A00004EBD010401C4008802A02D003E000205C
:1002B00010BD20F00100002900DA0020184310BD15
:1002C0002DE9FE4F804681EA0300C00F0C460090E6
:1002D00021F0004123F00045B8EB0200A94105D20E
:1002E0004046214690461C460B46024623F00040FD
:1002F000104347D0270DC7F30A00C3F30A510290F9
:10030000401A019040286BDAC3F3130040F4801BBD
:100310000098924620B10023D2EB030A63EB0B0B4B
:1003200001985946C0F14002504600F0A6F9064631
:100330000D4650465946019A00F0AEF910EB080000
:100340006141002487EA115284EAE7731A4340D0DE
:10035000009A62B3019A012A4FEA075215DC001B8A
:1003600061EB02014FF0004202EA0752CDE9004280
:10037000001C41F5801132462B4600F0E5F903B030
:10038000BDE8F08F40462146F9E7001B61EB020112
:10039000001C41F5801300185B412018A2F50017DE
:1003A00047EB030140EAD570B6196D4111E06D08C5
:1003B0004FEA360645EAC0754FEA0752001B61EB6B
:1003C0000201001C41F5801149084FEA3000001974
:1003D000514132462B4603B0BDE8F04F00F0A5B9BD
:1003E0000098012240000023D0EB020263EBE0738F
:1003F000009821464FEAE074B8EB000061EB04017D
:10040000E9E783F000435BE781F0004158E72DE91D
:10041000FE4F81EA030404F0004421F000410094FF
:100420004FF0000B23F0004350EA01045ED052EA83
:1004300003045BD0C3F30A54C1F30A552C44A4F25D
:10044000F3340194A0FB0254C1F3130141F4801171
:10045000C3F3130343F4801301FB024400FB034E78
:10046000840A970A44EA815447EA8357A4FB076841
:1004700002958D0A05FB07854FEA932C04FB0C546B
:100480002705029D4FEA065847EA1637B5EB0805DF
:100490006EEB070C870E920E47EA811742EA831231
:1004A000A7FB0201B6EB0B0164EB00042B0D43EA42
:1004B0000C335E1844EB1C50DA465146E7FB020150
:1004C000C5F313044FEA0B3343EA14534FEA0432E3
:1004D000019C43EA0603A4F10C040294009CCDE9BC
:1004E00000B400F031F903B0BDE8F08F0020014600
:1004F000F9E72DE9F04D81EA030404F0004B21F007
:10050000004514464FF0000A23F0004150EA05026E
:1005100020D054EA01021DD0C5F30A570246C5F3A4
:100520001303C1F31300C1F30A5640F4801543F4DA
:100530008013A7EB0608101BD64608F2FD3873EBB4
:10054000050002D308F1010801E092185B41B8F1FF
:10055000000F03DA00200146BDE8F08D00204FF4C3
:100560008011064684460EE0171B73EB050705D382
:10057000121B63EB050306434CEA010C49084FEAE2
:10058000300092185B4150EA0107EDD152EA0300B6
:1005900012D082EA040083EA0501084305D0101B4B
:1005A000AB4106D20122002306E000224FF00043B7
:1005B00002E06FF0010253101AEB06004CEB0851F9
:1005C00010EB0A0041EB0B01BDE8F04D00F0ADB8B7
:1005D00096230022114600F07AB80EB540F233415E
:1005E00002910021CDE900110A460B4600F0ACF85B
:1005F00003B000BD20F00040C10DC0F3160040F470
:1006000000007F2901DA00207047962903DCC1F140
:100610009601C8407047963988407047C1F30A5226
:1006200010B5C1F3130140F2FF3341F480119A4237
:1006300001DA002010BD40F233439A42A2F2334265
:1006400003DC5242FFF770FD10BD904010BD30B585
:100650000B46014600202022012409E021FA02F580
:100660009D4205D303FA02F5491B04FA02F528441A
:10067000151EA2F10102F1DC30BD202A04DB203A74
:1006800000FA02F1002070479140C2F1200320FAE5
:1006900003F3194390407047202A06DBCB17203A1A
:1006A00041FA02F043EAE07306E041FA02F3D04077
:1006B000C2F1200291400843194670470029A8BFA3
:1006C0007047401C490008BF20F00100704710B47B
:1006D000B0FA80FC00FA0CF050EA010404BF10BC30
:1006E000704749B1CCF1200421FA04F411FA0CF15D
:1006F00018BF012121430843A3EB0C01CB1D4FEA96
:1007000000614FEA102042BF002010BC704700EB90
:10071000C35010440029A4BF10BC7047401C4900BE
:1007200008BF20F0010010BC704710B5141E73F113
:10073000000408DA401C41F1000192185B411A43A1
:1007400001D120F0010010BD2DE9F04D92469B46ED
:1007500011B1B1FA81F202E0B0FA80F22032904693
:10076000FFF78BFF04460F4640EA0A0041EA0B01FF
:1007700053465A46084313D0114653EA010019D094
:10078000C8F140025046FFF7CFFC05460E465046E2
:1007900059464246FFF771FF084305D0012004E0A7
:1007A00020463946BDE8F08D0020054346EAE07654
:1007B0002C4337430A986305E40AA0EB08000022A3
:1007C000FD0A44EA47540A3002D500200146E9E711
:1007D000010510196941DDE9084500196941BDE8C5
:1007E000F04DA2E730B5041E71F1000404DB4FF0B8
:1007F0000044404264EB0101141E73F1000405DB68
:100800001C464FF00043524263EB0403994208BF79
:10081000904230BD064C074D06E0E06840F0010311
:1008200094E8070098471034AC42F6D3FFF762FC17
:1008300024D6000844D6000800BFFEE710B50248E1
:1008400000F0A2F810BD0000A802002030B590F81A
:1008500040500124AC40C56B6C6004686360446820
:10086000102C04D10468A2600468E16003E004680D
:10087000A1600468E26030BD704772B600BFFEE759
:100880000146002291F82100022808D00420886344
:1008900000BF002081F8200000BF012070470868D9
:1008A000006820F00E000B6818600868006820F0EF
:1008B00001000B68186091F8403001209840CB6B24
:1008C0005860012081F8210000BF002081F820003D
:1008D00000BF1046E2E7000070B50446002594F81A
:1008E0002100022803D00420A063012548E02068ED
:1008F000006820F00E00216808602068006820F081
:100900000100216808601F492068884201D1012048
:1009100026E01C4914312068884201D110201FE0D4
:10092000184928312068884201D1801518E01549FE
:100930003C312068884201D1801411E011495031C6
:100940002068884202D14FF4803009E00D496431BB
:100950002068884202D14FF4801001E04FF080708F
:10096000084908394860012084F8210000BF0020B0
:1009700084F8200000BF606B10B12046616B88478F
:10098000284670BD0800024070B50446E06B05685B
:100990002068066894F84010042088402840002809
:1009A00046D006F00400002842D02068006800F01D
:1009B000200028B92068006820F004002168086041
:1009C00057492068884201D1042027E05449143156
:1009D0002068884201D1402020E051492831206818
:1009E000884201D1001519E04D493C312068884208
:1009F00002D14FF4804011E04949503120688842CB
:100A000002D14FF4802009E04549643120688842D2
:100A100002D14FF4800001E04FF080604049083976
:100A20004860E06A00287AD02046E16A884776E08C
:100A300094F84010022088402840A0B306F002003D
:100A400088B32068006800F0200040B92068006882
:100A500020F00A0021680860012084F82100304954
:100A60002068884201D1022028E02D4914312068F5
:100A7000884201D1202021E029492831206888427C
:100A800001D140151AE026493C312068884202D144
:100A90004FF4005012E0224950312068884203D1BF
:100AA0004FF400300AE017E01D49643120688842A5
:100AB00002D14FF4001001E04FF0007018490839DE
:100AC000486000BF002084F8200000BFA06A30B357
:100AD0002046A16A884722E094F840100820884008
:100AE0002840E0B106F00800C8B12068006820F096
:100AF0000E002168086094F8401001208840E16BE6
:100B000048600120A06384F8210000BF002084F821
:100B1000200000BF206B10B12046216B884770BDBC
:100B2000080002400146002209B901207047164B17
:100B30000868C01A1423B0FBF3F080000864124860
:100B40000838C863022081F821000868026843F66B
:100B5000F0708243D1E901031843CB6818430B6955
:100B600018434B6918438B691843CB6918430243F8
:100B70000868026000208863012081F821000020BD
:100B800081F8200000BFD1E7080002402DE9F041C4
:100B900004460D4616461F464FF0000800BF94F865
:100BA0002000012802D10220BDE8F081012084F854
:100BB000200000BF94F8210001282CD1022084F8E5
:100BC00021000020A0632068006820F00100216857
:100BD00008603B46324629462046FFF737FEE06A6A
:100BE00030B12068006840F00E00216808600BE01A
:100BF0002068006820F00400216808602068006810
:100C000040F00A00216808602068006840F0010098
:100C10002168086006E000BF002084F8200000BFC3
:100C20004FF002084046BFE770B5044600F0AEF949
:100C300006462546681C10B104480078054400BFEC
:100C400000F0A4F9801BA842FAD370BD1C0000205C
:100C50002DE9F8470346002294466EE14FF0010863
:100C600008FA02F4D1F8008008EA0400A0427DD11D
:100C7000DFF8DCA2D1F80480A8EB0A09D0453AD00D
:100C800014DCB8F1030F50D009DCB8F1000F31D0FB
:100C9000B8F1010F1CD0B8F1020F49D120E0B8F132
:100CA000110F18D0B8F1120F42D11EE0B9F5881F0C
:100CB00025D006DCB9F5803F20D0B9F5801F37D1AB
:100CC0001AE0B9F5001F18D0B9F5041F30D117E0AC
:100CD000D1F80CC02DE0D1F80C8008F1040C28E00C
:100CE000D1F80C8008F1080C23E0D1F80C8008F151
:100CF0000C0C1EE000BF00BF00BF00BF00BF00BF64
:100D0000D1F80880B8F1000F02D14FF0040C0BE0CD
:100D1000D1F80880B8F1010F03D14FF0080C1C6125
:100D200002E04FF0080C5C6103E04FF0000C00E0C3
:100D300000BF00BFFF2801D8984601E003F1040876
:100D40004646FF2802D84FEA820803E0A2F10808CD
:100D50004FEA88084746D6F800804FF00F0909FA95
:100D600007F928EA09080CFA07F900E088E048EAE0
:100D70000908C6F80080D1F8048008F08058B8F15E
:100D8000805F7DD100BFDFF8CC81D8F8188048F0B3
:100D90000108DFF8C091C9F81880C846D8F8188053
:100DA00008F00108CDF8008000BF00BF4FEAB93855
:100DB0004FEA920958F829504FEA82784FEA187999
:100DC0004FF00F0808FA09F825EA0805DFF88881CE
:100DD000434502D14FF0000816E0DFF8808143451B
:100DE00002D14FF001080FE0DFF87481434502D1D2
:100DF0004FF0020808E0DFF86C81434502D14FF064
:100E0000030801E04FF004084FEA82794FEA1979AC
:100E100008FA09F848EA0505DFF84C814FEA92091B
:100E200048F82950D1F8048008F48038B8F5803F9C
:100E30000AD1DFF83881D8F8008048EA0008DFF8E6
:100E40002C91C9F8008009E0DFF82081D8F80080F3
:100E500028EA0008DFF81491C9F80080D1F804806E
:100E600008F40038B8F5003F10D1DFF8008108F130
:100E70000408D8F8008048EA0008DFF8F09000E0A5
:100E80005AE009F10409C9F800800DE0DFF8DC80C0
:100E900008F10408D8F8008028EA0008DFF8CC90B0
:100EA00009F10409C9F80080D1F8048008F4801819
:100EB000B8F5801F0ED1DFF8B48008F10808D8F823
:100EC000008048EA0008DFF8A49009F10809C9F891
:100ED00000800DE0DFF8948008F10808D8F8008061
:100EE00028EA0008DFF8849009F10809C9F80080B1
:100EF000D1F8048008F40018B8F5001F0ED1DFF80F
:100F00006C8008F10C08D8F8008048EA0008DFF887
:100F10005C9009F10C09C9F800800DE0DFF84C8005
:100F200008F10C08D8F8008028EA0008DFF83C90A7
:100F300009F10C09C9F80080521CD1F8008028FA88
:100F400002F8B8F1000F7FF489AEBDE8F887000021
:100F5000000011100010024000080140000C014088
:100F6000001001400014014008000140000401404D
:100F7000024693680B400BB1012000E0002070474F
:100F80000AB1016101E00B04036170470148006888
:100F900070470000140000200348006803490978E6
:100FA0000844014908607047140000201C0000201C
:100FB00010B50848006840F010000649086003209A
:100FC00000F0A8F80F2000F007F800F02BF8002040
:100FD00010BD00000020024070B504460E480078A5
:100FE0004FF47A71B1FBF0F00C490968B1FBF0F5F0
:100FF000284600F00BFC08B1012070BD102C07D270
:1010000000222146501E00F047F80548046001E028
:101010000120F2E70020F0E71C0000202000002063
:101020001800002008B500BF1148806940F0010099
:101030000F4988610846806900F00100009000BFF8
:1010400000BF00BF0846C06940F08050C861084634
:10105000C06900F08050009000BF00BF00BF05498C
:10106000486820F0E06040F00070486000BF08BDB4
:10107000001002400000014001460846002809DB3C
:1010800000F01F0301229A4043099B0003F1E02373
:10109000C3F8002100BF70472DE9F05F80460D4680
:1010A0001646002702F038FE074639462A463346E0
:1010B00001F00700C0F1070ABAF1040F02D94FF09E
:1010C000040A01E0C0F1070AD14600F1040ABAF1AE
:1010D000070F02D24FF0000A01E0A0F1030AD44644
:1010E0004FF0010A0AFA09FAAAF1010A0AEA020A09
:1010F0000AFA0CFA4FF0010B0BFA0CFBABF1010BE7
:101100000BEA030B4AEA0B042146404602F00CFEB0
:10111000BDE8F09F00BF00F00702064B19684FF6CC
:10112000FF031940044B0B4343EA0221014B1960B2
:1011300000BF70470CED00E00000FA0570B50446F2
:101140000D460CB9012070BD5A48006800F0070038
:10115000A8420ED25748006820F00700284355499E
:1011600008600846006800F00700A84201D001208E
:10117000E9E7207800F0020002281DD1207800F075
:101180000400042805D14C48406840F4E0604A4916
:101190004860207800F00800082805D146484068DB
:1011A00040F46050444948604348406820F0F000F3
:1011B000A168084340494860207800F0010078B3F6
:1011C0006068012806D13C48006800F4003090B9FE
:1011D0000120B8E76068022806D13748006800F0AF
:1011E000007040B90120AEE73348006800F002000B
:1011F00008B90120A7E73048406820F00300616883
:1012000008432D494860FFF7C1FE064609E0FFF795
:10121000BDFE801B41F28831884202D9032092E74B
:1012200007E02548406800F00C006168B0EB810FD2
:10123000EDD12048006800F00700A8420ED91D48F3
:10124000006820F0070028431A4908600846006833
:1012500000F00700A84201D0012074E7207800F0D8
:101260000400042807D11448406820F4E060E168D5
:10127000084311494860207800F00800082808D188
:101280000D48406820F46050216940EAC1000A49D5
:10129000486000F03FF808494968C1F30311074A64
:1012A000515CC8400649086006480068FFF794FE94
:1012B000002048E700200240001002400C470008D0
:1012C000200000201800002001480068704700003E
:1012D0002000002000B5FFF7F7FF04494968C1F37B
:1012E0000221034A515CC84000BD000000100240CA
:1012F0001C47000800B5FFF7E7FF04494968C1F340
:10130000C221034A515CC84000BD000000100240E9
:101310001C470008F0B585B00FF26C0C9CE8E0109B
:1013200001A8A0E8E0101CA52D680095002100226E
:10133000002300240020194D696801F00C05F5B167
:10134000042D02D0082D19D101E0154819E001AD96
:10135000C1F38346AC5D01F4803555B10F4D6D6826
:10136000C5F340451DF805200D4D6543B5FBF2F36F
:1013700002E00C4D04FB05F3184602E000BF0848EC
:1013800000BF00BF05B0F0BD020304050607080951
:101390000A0B0C0D0E0F101001020000001002408D
:1013A00000127A0000093D00F8B504460CB901208E
:1013B000F8BD207800F00100002878D0F848406897
:1013C00000F00C0004280CD0F548406800F00C0038
:1013D000082811D1F248406800F48030B0F5803F11
:1013E0000AD1EF48006800F4003000285FD0606840
:1013F00000285CD10120DBE700BF6068B0F5803FCA
:1014000006D1E748006840F48030E549086028E0EC
:10141000606858B9E248006820F48030E04908600C
:101420000846006820F4802008601AE06068B0F583
:10143000A02F0BD1DA48006840F48020D84908601A
:101440000846006840F4803008600AE0D44800682C
:1014500020F48030D24908600846006820F48020DB
:10146000086000BF606888B1FFF790FD054606E0A0
:10147000FFF78CFD401B642801D9032098E7C8487A
:10148000006800F400300028F2D010E0FFF77EFD85
:10149000054606E0FFF77AFD401B642801D90320CA
:1014A00086E7BF48006800F400300028F2D12078B9
:1014B00000F00200022857D1B948406800F00C0043
:1014C00050B1B748406800F00C00082818D1B44863
:1014D000406800F4803098B9B148006800F002001C
:1014E00020B12069012801D0012061E7AC480068E3
:1014F00020F0F800616940EAC100A949086033E0C2
:101500002069E8B10120A7490860FFF73FFD0546C3
:1015100006E0FFF73BFD401B022801D9032047E707
:101520009F48006800F002000028F2D09C48006844
:1015300020F0F800616940EAC1009949086013E0B1
:10154000002098490860FFF721FD054606E0FFF7F7
:101550001DFD401B022801D9032029E7904800689F
:1015600000F002000028F2D1207800F008000828DE
:101570002DD1A069B8B101208B490860FFF706FDA5
:10158000054606E0FFF702FD401B022801D90320B3
:101590000EE78348406A00F002000028F2D00120E4
:1015A00001F09CFE13E000207F490860FFF7EEFC8D
:1015B000054606E0FFF7EAFC401B022801D903209C
:1015C000F6E67748406A00F002000028F2D1207861
:1015D00000F00400042873D100277148C06900F0AE
:1015E000805070B900BF6E48C06940F080506C49AF
:1015F000C8610846C06900F08050009000BF00BF7D
:1016000001276A48006800F48070B0B96748006834
:1016100040F4807065490860FFF7B8FC054606E0B5
:10162000FFF7B4FC401B642801D90320C0E65F48E3
:10163000006800F480700028F2D000BFE068012844
:1016400006D15748006A40F001005549086227E07A
:10165000E06858B95248006A20F001005049086219
:101660000846006A20F00400086219E0E0680528D6
:101670000BD14B48006A40F0040049490862084613
:10168000006A40F0010008620AE04548006A20F064
:101690000100434908620846006A20F0040008621D
:1016A00000BFE068A0B1FFF771FC054609E0FFF755
:1016B0006DFC401B41F28831884202D9032077E655
:1016C00022E03748006A00F002000028EFD012E064
:1016D000FFF75CFC054608E0FFF758FC401B41F2B1
:1016E0008831884201D9032062E62D48006A00F063
:1016F00002000028F0D1012F05D12948C06920F04F
:1017000080502749C86100BFE069C8B324484068D9
:1017100000F00C00082860D0E069022848D10020C1
:1017200020490866FFF732FC054606E0FFF72EFC6D
:10173000401B022801D903203AE61948006800F04E
:1017400000700028F2D1206AB0F5803F07D114481C
:10175000406820F40030A168084311494860D4E98A
:10176000080108430E49496821F4741108430C49E3
:10177000486001200B490866FFF708FC054607E0B2
:101780003DE0FFF703FC401B022801D903200FE6D0
:101790000348006800F000700028F2D02FE000003D
:1017A00000100240000042428004424200700040AB
:1017B000002014490866FFF7E9FB054606E0FFF73D
:1017C000E5FB401B022801D90320F1E50E48006823
:1017D00000F000700028F2D111E0E069012800D18A
:1017E000E6E50948466806F48031206A814204D162
:1017F00006F47011606A814201D00120D8E5002012
:10180000D6E50000000042420010024070B50446D8
:101810002546681EB0F1807F01D301200FE0681ECD
:101820004FF0E02148610F214FF0FF3002F07CFAC9
:1018300000204FF0E021886107200861002070BD82
:101840007047704730B502460B4600BF92F83C0027
:10185000012801D1022030BD012082F83C0000BFE8
:10186000022082F83D00106844681068816824F006
:1018700070041868044310684460104D1068A84252
:101880000BD01068B0F1804F07D00D4D1068A84202
:1018900003D00C4D1068A84205D121F08001586892
:1018A000014310688160012082F83D0000BF0020E4
:1018B00082F83C0000BF00BFCDE70000002C0140D3
:1018C000000400400008004010B504460CB9012097
:1018D00010BD94F83D0028B9002084F83C00204653
:1018E00000F026F8022084F83D00211D206801F058
:1018F00041FE012084F8460000BF84F83E0001212B
:101900003F200155402001554120015500BF00BF37
:10191000012084F842004320015544200155452010
:10192000015500BF012084F83D000020D0E70000F1
:1019300010B586B0044600200290039004900590F4
:101940002649206888422DD100BF2548806940F48F
:101950000060234988610846806900F400600190B6
:1019600000BF00BF00BF0846806940F004008861E6
:101970000846806900F00400019000BF00BFC81451
:101980000290002003900220049002A91548FFF75E
:101990005FF9002211461B20FFF77EFB1B20FFF79B
:1019A0006BFB19E02068B0F1804F15D100BF0C48E7
:1019B000C06940F001000A49C8610846C06900F0EA
:1019C0000100019000BF00BF002211461C20FFF75C
:1019D00063FB1C20FFF750FB06B010BD002C01403C
:1019E0000010024000080140014691F83D00012826
:1019F00001D001207047022081F83D000868C068CE
:101A000040F001000B68D860124B086898420BD078
:101A10000868B0F1804F07D00F4B0868984203D098
:101A20000E4B086898420CD10868806800F00702E5
:101A3000062A0CD00868006840F001000B681860A6
:101A400005E00868006840F001000B68186000209D
:101A5000D0E70000002C01400004004000080040D6
:101A60002DE9F04104460D4600BF94F83C000128E2
:101A700002D10220BDE8F081012084F83C0000BFC3
:101A8000022084F83D002068866826F0770626F458
:101A90007F46206886602868502833D00CDC2028D8
:101AA00050D004DC00284BD0102851D149E0302818
:101AB00049D040284CD139E060282DD0702807D07B
:101AC000B0F5805F03D0B0F5005F41D10DE040E09C
:101AD000D5E902136A68206801F097FD20688668DE
:101AE00046F077062068866033E0D5E902136A681D
:101AF000206801F08AFD2068806840F480402168F9
:101B0000886026E0EA686968206801F092FD50214B
:101B1000206801F085FD1CE0EA686968206801F032
:101B2000CFFD6021206801F07BFD12E0EA68696862
:101B3000206801F07EFD4021206801F071FD08E081
:101B400000BF00BF00BF2968206801F069FD00E008
:101B500000BF00BF012084F83D0000BF002084F8D2
:101B60003C0000BF00BF85E710B50446207FA149B7
:101B7000496D88426FD1A048007810B1012869D121
:101B80006AE09C48016D00F0CAFB9C49086000BFF8
:101B90009848006D40B997480068006A20F00A0034
:101BA00094490968086221E09248006D042808D130
:101BB00090480068006A20F0A0008E490968086219
:101BC00014E08C48006D082808D18A480068006A33
:101BD00020F4007087490968086207E085480068BA
:101BE000006A20F400508349096808628148006D4A
:101BF00040B980480068006A40F002007D490968E9
:101C0000086221E07B48006D042808D1794800680B
:101C1000006A40F0200077490968086214E07548BE
:101C2000006D082808D173480068006A40F400700D
:101C300070490968086207E06E480068006A40F46D
:101C400000506C490968086200BF6B480078401C6E
:101C500069490870CBE0CBE06648016D00F05FFB9E
:101C6000674908606348016D00F020FA6448006825
:101C70006249096888420BD2604800684FF6FF71DC
:101C8000081A5F4909680844401C5E49086006E07C
:101C90005B48006859490968401A5A4908605A481F
:101CA000007830BB5748006858490978584A42F8CC
:101CB000210056480078401C5449087008460078B6
:101CC000082836D1002009E04E490968504A52F8E8
:101CD000202011444B4A1160411CC8B20828F3DB94
:101CE00048480068C0084B49086001204649087010
:101CF0001FE00020474908601C224549091D081FB4
:101D0000FEF722FA3F4800684149C861002009E017
:101D10003C4909683E4A52F820201144394A116072
:101D2000411CC8B20828F3DB36480068C0083949AE
:101D300008600020304908702E48016D00F00AF953
:101D400000BF2C48006D40B92A480068006A20F0A6
:101D50000A0028490968086221E02648006D042825
:101D600008D124480068006A20F0A00021490968D1
:101D7000086214E01F48006D082808D11D4800685B
:101D8000006A20F400701B490968086207E01948DE
:101D90000068006A20F40050164909680862154876
:101DA000006D30B913480068006A1249096808627A
:101DB0001BE01048006D042806D10E480068006A38
:101DC0000C490968086210E00A48006D082806D12D
:101DD00008480068006A07490968086205E0054884
:101DE0000068006A03490968086200BF00BF00BFBD
:101DF00010BD000034000020000000208C000020F6
:101E00009C0000203C01002004000020080000206D
:101E1000AC0000202C0100202DE9F04104460D46C5
:101E2000164600BF94F83C00012802D10220BDE80C
:101E3000F081012084F83C0000BF96B9EB68D5E939
:101E40000012206801F008FC2068806920F00C0076
:101E50002168886120688069A968084321688861D1
:101E60003DE0042E13D1EB68D5E90012206801F0A3
:101E70003BFC2068806920F440602168886120680C
:101E80008069A96840EA01202168886127E0082E5E
:101E900012D1EB68D5E90012206801F042FC2068FD
:101EA000C06920F00C002168C8612068C069A96879
:101EB00008432168C86112E0EB68D5E90012206888
:101EC00001F04BFC2068C06920F440602168C861C3
:101ED0002068C069A96840EA01202168C86100BF84
:101EE000002084F83C0000BF00BFA0E710B5044606
:101EF0000CB9012010BD94F83D0028B9002084F8E9
:101F00003C00204600F025F8022084F83D00211D09
:101F1000206801F02FFB012084F8460000BF84F800
:101F20003E0001213F20015540200155412001552F
:101F300000BF00BF012084F8420043200155442027
:101F400001554520015500BF012084F83D000020C7
:101F5000D0E770472DE9F04104460D4615B994F8D5
:101F60003E000BE0042D02D13F20005D06E0082D6D
:101F700002D14020005D01E04120005D074615B917
:101F800094F842000BE0042D02D14320005D06E0EE
:101F9000082D02D14420005D01E04520005D80460F
:101FA000012F02D1B8F1010F02D00120BDE8F0816C
:101FB0001DB9022084F83E000EE0042D03D1022159
:101FC0003F20015508E0082D03D102214020015592
:101FD00002E00221412001551DB9022084F842008F
:101FE0000EE0042D03D102214320015508E0082D05
:101FF00003D102214420015502E002214520015570
:1020000035B1042D0BD0082D10D00C2D1CD114E0AF
:102010002068C06840F002002168C86015E02068B0
:10202000C06840F004002168C8600EE02068C06805
:1020300040F008002168C86007E02068C06840F0F0
:1020400010002168C86000E000BF00BF01222946DF
:10205000206801F0C9FA1249206888420BD0206834
:10206000B0F1804F07D00F492068884203D00E4955
:10207000206888420CD12068806800F00706062E90
:102080000CD02068006840F001002168086005E07D
:102090002068006840F0010021680860002085E7A2
:1020A000002C0140000400400008004030B5044608
:1020B0000D4635B1042D0BD0082D10D00C2D1CD1A0
:1020C00014E02068C06820F002002168C86015E0B4
:1020D0002068C06820F004002168C8600EE0206815
:1020E000C06820F008002168C86007E02068C06868
:1020F00020F010002168C86000E000BF00BF00228F
:102100002946206801F070FA00BF2068006A41F299
:102110001111084050B92068006A8910084028B998
:102120002068006820F001002168086000BF1DB928
:10213000012084F83E000EE0042D03D101213F2050
:10214000015508E0082D03D101214020015502E08E
:102150000121412001551DB9012084F842000EE003
:10216000042D03D101214320015508E0082D03D19E
:1021700001214420015502E00121452001550020A4
:1021800030BD10B5044620680069C0F34000D8B1E6
:102190002068C068C0F34000B0B16FF00200216851
:1021A0000861012020772068806900F0030018B1E1
:1021B0002046FFF7D9FC05E0204600F0ADF82046A8
:1021C00000F0ABF80020207720680069C0F38000A1
:1021D000D8B12068C068C0F38000B0B16FF00400CF
:1021E00021680861022020772068806900F440702F
:1021F00018B12046FFF7B8FC05E0204600F08CF847
:10220000204600F08AF80020207720680069C0F39B
:10221000C000D8B12068C068C0F3C000B0B16FF092
:10222000080021680861042020772068C06900F058
:10223000030018B12046FFF797FC05E0204600F0A8
:102240006BF8204600F069F80020207720680069CC
:10225000C0F30010D8B12068C068C0F30010B0B15E
:102260006FF0100021680861082020772068C0699D
:1022700000F4407018B12046FFF776FC05E02046D8
:1022800000F04AF8204600F048F800202077206847
:10229000006900F0010058B12068C06800F001003A
:1022A00030B16FF0010021680861204600F036F877
:1022B00020680069C0F3C01058B12068C068C0F33E
:1022C000C01030B16FF08000216808612046FFF730
:1022D000B7FA20680069C0F3801058B12068C06860
:1022E000C0F3801030B16FF04000216808612046D3
:1022F00000F02EF820680069C0F3401058B1206843
:10230000C068C0F3401030B16FF020002168086150
:102310002046FFF796FA10BD704770477047024697
:10232000002031B1042907D0082908D00C290CD18C
:1023300008E01368586B09E01368986B06E01368AF
:10234000D86B03E01368186C00E000BF00BF704753
:102350007047704770B50446002520684069C0F397
:10236000C01594F83D0021280ED16DB12068406958
:1023700020F0800021684861606B10B1606BFEF74F
:102380007FFA204601F0A8FA20684069C0F3801562
:1023900094F83E0022280ED16DB12068406920F0EB
:1023A000400021684861A06B10B1A06BFEF768FA8D
:1023B000204601F066FA002070BD70472DE9F84F05
:1023C0000446206805682068C668206847694FF0A1
:1023D0000009CA4605F00F09B9F1000F0AD105F04E
:1023E000200038B106F0200020B1204601F07EFA2E
:1023F000BDE8F88FB9F1000F71D007F0010018B9EE
:1024000006F4907000286AD005F0010030B106F49F
:10241000807018B1206C40F00100206405F00400C9
:1024200030B107F0010018B1206C40F002002064C8
:1024300005F0020030B107F0010018B1206C40F047
:102440000400206405F0080048B106F0200010B92F
:1024500007F0010018B1206C40F008002064206CE7
:1024600068B305F0200028B106F0200010B1204626
:1024700001F03CFA20684069C0F3801A206C00F03B
:10248000080010B9BAF1000F22D0204601F0F9F986
:102490002068406900F04000B0B12068406920F039
:1024A000400021684861A06B50B15648A16B486359
:1024B000A06BFEF711FA10B1A06B416B88470CE0DE
:1024C0002046FFF77AFF08E02046FFF776FF04E09A
:1024D0002046FFF772FF0020206489E7FFE7206BAA
:1024E000012878D105F01000002874D006F0100003
:1024F000002870D000BF0020009020680068009085
:1025000020684068009000BF00BF2068406900F06C
:102510004000C0B3A06B006840681FFA80F8B8F1B3
:10252000000F2FD0A08D40452CDDA4F82E80A06B8D
:10253000806920281FD02068C06820F4807021683E
:10254000C8602068406920F0010021684861206867
:10255000406920F0400021684861202084F83E0056
:10256000002020632068C06820F010002168C86047
:10257000A06BFEF785F9A08DE28D801A81B220460E
:10258000FFF7E7FE34E7FFE7A08DE18D401A1FFA61
:1025900080F8E08DE8B1B8F1000F1AD02068C0686B
:1025A00020F490702168C8602068406920F0010024
:1025B00021684861202084F83E00002020632068C4
:1025C000C06820F010002168C86041462046FFF72F
:1025D000C0FE0DE7FFE705F0800030B106F0800097
:1025E00018B1204601F0BEFA02E705F0400030B114
:1025F00006F0400018B1204601F05EF9F8E600BF91
:10260000F6E600009737000810B504460CB9012023
:1026100010BDA06900B100E000BF94F83D0028B9EA
:10262000002084F83C00204600F028F8242084F89C
:102630003D002068C06820F400502168C860204632
:1026400001F0C6F92068006920F490402168086113
:102650002068406920F02A00216848612068C0682D
:1026600040F400502168C86000202064202084F8D5
:102670003D0084F83E000020CAE7000010B586B097
:10268000044600200290039004900590654920685C
:10269000884236D100BF6448806940F48040624976
:1026A00088610846806900F48040019000BF00BF47
:1026B00000BF0846806940F00800886108468069CC
:1026C00000F00800019000BF00BF402002900220EF
:1026D00003900320059002A95448FEF7B9FA802020
:1026E000029000200390049002A95048FEF7B0FA2F
:1026F00000BF4F49486840F0E06040F00400486087
:102700008EE04C49206888424FD100BF4648C069DE
:1027100040F400304449C8610846C06900F4003004
:10272000019000BF00BF00BF0846806940F0040070
:1027300088610846806900F00400019000BF00BF76
:1027400004200290022003900320059002A93A4839
:10275000FEF77EFA0820029000200390049002A960
:102760003548FEF775FA354835490860002048605D
:102770000021334881608021C160002101614161F5
:102780008161C161FEF7CEF908B1FEF776F800BFAE
:102790002B48A063446200BF002211462620FEF7AA
:1027A0007BFC2620FEF768FC3AE026492068884238
:1027B00036D100BF1C48C06940F480201A49C86166
:1027C0000846C06900F48020019000BF00BF00BF30
:1027D0000846806940F0080088610846806900F07A
:1027E0000800019000BF00BF08150290022003906E
:1027F0000320059002A90D48FEF72AFA4FF4006065
:10280000029000200390049002A90848FEF720FAE5
:10281000002211462720FEF73FFC2720FEF72CFC64
:1028200006B010BD0038014000100240000C01400D
:102830000000014000440040000801406C000240DC
:10284000A80200200048004070B504460D46164618
:1028500094F83E00202816D105B10EB9012070BDB4
:1028600000BF94F83C00012801D10220F7E70120C5
:1028700084F83C0000BF00202063324629462046F1
:1028800001F024F9EBE70220E9E7704770472DE9F2
:10289000F84F04460E46174699464FF0000A94F842
:1028A0003D0020285AD106B117B90120BDE8F88FA4
:1028B00000BF94F83C00012801D10220F6E7012076
:1028C00084F83C0000BF00202064212084F83D00F3
:1028D000FEF75CFB8246A784E784A068B0F5805FC2
:1028E00004D1206910B90025B04602E035464FF00A
:1028F000000800BF002084F83C0000BF1BE05346E6
:10290000002280212046CDF8009001F05BF908B14B
:102910000320CBE745B9B8F80000C0F308002168F0
:10292000486008F1020803E02878216848606D1CBF
:10293000E08C401EE084E08C0028E0D15346002269
:1029400040212046CDF8009001F03CF908B1032069
:10295000ACE7202084F83D000020A7E70220A5E78F
:10296000704700BFFEE7000010B500224FF4806101
:102970000E48FEF705FB012000F068FD00224FF431
:1029800000710A48FEF7FCFA022001F0D9FA012290
:1029900091020648FEF7F4FA022001F0D1FA002273
:1029A0004FF480610148FEF7EBFA10BD00080140CA
:1029B00000B585B000BF1248806940F0040010499E
:1029C00088610846806900F00400009000BF00BFE5
:1029D0004FF4C06001900120029003900320049006
:1029E00001A90848FEF734F9012251020548FEF713
:1029F000C7FA012291020348FEF7C2FA05B000BDF2
:102A0000001002400008014010B500224FF4806120
:102A10000E48FEF7B5FA012000F018FD0122510220
:102A20000A48FEF7ADFA022001F08AFA012291026B
:102A30000648FEF7A5FA022001F082FA00224FF4C0
:102A400080610248FEF79CFA10BD000000080140BA
:102A500070B505460024002000F0F8FC00261CE0BC
:102A600000224FF480611248FEF78AFA022001F03A
:102A700067FA012291020E48FEF782FA6006040E00
:102A80004FF400710A48FEF773FA08B1601CC4B233
:102A9000012001F055FA701CC6B2082EE0DB15B912
:102AA000FFF7B2FF01E0FFF75FFF204670BD0000B7
:102AB0000008014070B50446012000F0C7FC002268
:102AC0004FF480611648FEF75BFA002525E0E00927
:102AD00028B1012251021248FEF752FA05E0002205
:102AE0004FF400710E48FEF74BFA6006040E022008
:102AF00001F026FA012291020948FEF741FA02206C
:102B000001F01EFA00224FF480610548FEF738FA02
:102B1000022001F015FA681CC5B2082DD7DB70BD84
:102B20000008014010B5012000F090FC0122510284
:102B30000D48FEF725FA012291020B48FEF720FA14
:102B4000042001F0FDF900224FF400710648FEF761
:102B500017FA042001F0F4F900224FF480610248D2
:102B6000FEF70EFA10BD00000008014010B501206C
:102B700000F06CFC00224FF480610D48FEF700FA73
:102B800000224FF400710A48FEF7FAF9042001F020
:102B9000D7F9012291020648FEF7F2F9012251020B
:102BA0000348FEF7EDF9042001F0CAF910BD00005A
:102BB0000008014010B50024002000F047FC01226D
:102BC00051021348FEF7DCF9012001F0B9F90122A6
:102BD00091020F48FEF7D4F9012001F0B1F907E0A6
:102BE000601CC4B2FA2C03DDFFF7C0FF012010BD4A
:102BF0004FF400710648FEF7BBF90028F0D100221F
:102C00004FF480610248FEF7BBF90020EFE70000B7
:102C1000000801402DE9F04104460D4616461F46C6
:102C20002A2000F07FF9611C88B200F06CF9711C59
:102C300088B200F068F92B2000F074F9A91C88B262
:102C400000F061F9B91C88B200F05DF92C2000F0A9
:102C500069F9BDE8F0812DE9F04706460F461446B4
:102C60001D46DDF820A0681E83B2601E82B2394680
:102C70003046FFF7CFFFB8460EE0B14606E05046BB
:102C800000F041F909F101001FFA80F9A145F6DBD6
:102C900008F101001FFA80F8A845EEDBBDE8F087D7
:102CA00010B5002220217C48FEF76AF96420FDF768
:102CB000BBFF012220217848FEF762F96420FDF76E
:102CC000B3FF0122D1037548FEF75AF96420FDF7DE
:102CD000ABFF112000F026F97820FDF7A5FFB12009
:102CE00000F020F9052000F017F93C2000F014F95D
:102CF0003C2000F011F9B22000F014F9052000F09A
:102D00000BF93C2000F008F93C2000F005F9B32055
:102D100000F008F9052000F0FFF83C2000F0FCF876
:102D20003C2000F0F9F8052000F0F6F83C2000F017
:102D3000F3F83C2000F0F0F8B42000F0F3F80320A2
:102D400000F0EAF8C02000F0EDF8282000F0E4F8E8
:102D5000082000F0E1F8042000F0DEF8C12000F0C7
:102D6000E1F8C02000F0D8F8C22000F0DBF80D2018
:102D700000F0D2F8002000F0CFF8C32000F0D2F825
:102D80008D2000F0C9F82A2000F0C6F8C42000F019
:102D9000C9F88D2000F0C0F8EE2000F0BDF8C52085
:102DA00000F0C0F81A2000F0B7F8362000F0BAF8AA
:102DB000A02000F0B1F8E02000F0B4F8042000F00A
:102DC000ABF8222000F0A8F8072000F0A5F80A20B0
:102DD00000F0A2F82E2000F09FF8302000F09CF8C0
:102DE000252000F099F82A2000F096F8282000F01D
:102DF00093F8262000F090F82E2000F08DF83A206D
:102E000000F08AF8002000F087F8012000F084F834
:102E1000032000F081F8132000F07EF8E12000F09C
:102E200081F8042000F078F8162000F075F80620EC
:102E300000F072F80D2000F06FF82D2000F06CF813
:102E4000262000F069F8232000F066F8272000F023
:102E500063F8272000F060F8252000F05DF82D20B1
:102E600000F05AF83B2000F057F8002000F054F82A
:102E7000012000F051F8042000F04EF8132000F07B
:102E80004BF83A2000F04EF8052000F045F82920D4
:102E900000F048F810BD0000000C0140000801409F
:102EA0002DE9F05F0746884615461E46DDF8289056
:102EB000002408EB0600401E83B27819401E82B23F
:102EC00041463846FFF7A6FEA24618E04FF0000B39
:102ED0000FE019F8140000F01FF8012101EB440184
:102EE00019F8010000F018F8641C0BF101001FFA3A
:102EF00080FBB345EDDB0AF101001FFA80FAAA4519
:102F0000E4DBBDE8F09F10B50446201200F01CF889
:102F1000E0B200F019F810BD10B50446204600F0EC
:102F200013F810BD10B50446002210210548FEF725
:102F300027F8204600F008F8012210210148FEF78A
:102F40001FF810BD000C014070B504460022082196
:102F50001548FEF715F800251DE000224FF400711A
:102F60001148FEF70DF804F0800028B1012211028B
:102F70000D48FEF705F805E000224FF480710A487D
:102F8000FDF7FEFF012251020748FDF7F9FF600639
:102F9000040E681CC5B2082DDFDB0122082102489F
:102FA000FDF7EEFF70BD0000000C014008B500BF4A
:102FB0000A48406940F001000849486108464069F4
:102FC00000F00100009000BF00BF00221146102059
:102FD000FEF762F81020FEF74FF808BD001002401F
:102FE00000B585B00020019002900390049000BFCE
:102FF0003D48806940F020003B498861084680696F
:1030000000F02000009000BF00BF00BF08468069AC
:1030100040F0040088610846806900F004000090D8
:1030200000BF00BF00BF0846806940F0080088610B
:103030000846806900F00800009000BF00BF012230
:10304000D1032A48FDF79CFF01224FF44E71284816
:10305000FDF796FF00224FF400412548FDF790FF51
:103060004FF400400190012002900390032004904F
:1030700001A91E48FDF7ECFD48F23830019001200F
:10308000029003900320049001A91948FDF7E0FD88
:1030900003200190002002900220039001A914480F
:1030A000FDF7D6FD4FF480500190012002900220E0
:1030B00003900320049001A90D48FDF7C9FD4FF4CA
:1030C0008070019001200290022003900320049060
:1030D00001A90648FDF7BCFD00224FF480510448C9
:1030E000FDF74EFF05B000BD001002400008014092
:1030F000000C014000B58BB00020079008900990AB
:103100000A900590069001900290039004901F4849
:103110001F4908604720486000211D4881604FF624
:10312000FF71C1600021016141618161FEF7CCFB4B
:1031300008B1FDF7A2FB4FF48050079007A914488F
:10314000FEF78EFC08B1FDF798FB1148FEF7CEFEA6
:1031500008B1FDF792FB00200590069005A90C48E8
:10316000FEF770FB08B1FDF788FB002001900120FD
:1031700002900020039004900C2201A90448FEF75D
:103180004BFE08B1FDF779FB0BB000BD002C0140F0
:103190004C01002000B587B00020039004900590FA
:1031A0000690019002904FF0804014490860002082
:1031B00048600021114881604FF6FF71C160002115
:1031C00001618161FEF780FB08B1FDF756FB4FF40A
:1031D0008050039003A90948FEF742FC08B1FDF7AF
:1031E0004CFB00200190029001A90448FEF72AFB45
:1031F00008B1FDF742FB07B000BD000094010020BC
:1032000010B50B480B4908604FF4E13048600021CD
:1032100008488160C16001610C2141610021816128
:10322000C161FFF7F1F908B1FDF727FB10BD000000
:1032300000380140DC01002010B50B480B49086044
:103240004FF4E1304860002108488160C1600161AD
:103250000C21416100218161C161FFF7D5F908B1FD
:10326000FDF70BFB10BD00000044004020020020D1
:1032700010B50B480B4908604FF4E130486000215D
:1032800008488160C16001610C21416100218161B8
:10329000C161FFF7B9F908B1FDF7EFFA10BD000001
:1032A000004800406402002000BFFEE700BFFEE7C8
:1032B0007047000010B507480068C06840F0100073
:1032C00004490968C860142203490248FFF7BCFAA0
:1032D00010BD0000200200203403002008B508497A
:1032E0000968C9084FF47A72B1FBF2F141430091C9
:1032F00000BF00BF00994A1E00920029F9D108BD05
:103300002000002070B586B0044600200290039093
:103310000490059000BF1E48806940F008001C49D9
:1033200088610846806900F00800019000BF00BF76
:10333000FFF73EFB00224FF480411648FDF720FEC8
:103340004FF480400290012003900220049003205B
:10335000059002A90F48FDF77BFC1121002000F029
:103360003FF8204600F08CFE06463146FE2000F075
:1033700037F80121002000F033F80025FE2000F08E
:1033800011F80546294604A000F0B6FC06B070BD51
:1033900000100240000C014074656D703D25640D05
:1033A0000A00000070B504460025FFF7BBFBE020D3
:1033B000FFF780FBFFF7FEFB2046FFF77BFBFFF7E5
:1033C000F9FBFFF7AFFBE120FFF774FBFFF7F2FB20
:1033D0000020FFF73DFB0546FFF7C8FB284670BD00
:1033E00070B505460C46FFF79DFBE020FFF762FB3A
:1033F000FFF7E0FB2846FFF75DFBFFF7DBFB20460E
:10340000FFF758FBFFF7D6FBFFF7B0FB0A2000F0F1
:1034100089FD70BD70B505460C46A100891DC8B276
:103420000021FFF7DDFFA100C91DC8B20021FFF791
:10343000D7FFE9B2A2000832D0B2FFF7D1FF2912BC
:10344000A2000932D0B2FFF7CBFF70BD1FB5044612
:10345000012C0AD14002009001200190029003202B
:10346000039069460848FDF7F3FB64B94FF4007018
:1034700000900020019002200290032003906946F2
:103480000148FDF7E5FB1FBD00080140704710B57E
:10349000FDF782FD10BD00B58FB0282105A8FCF70F
:1034A0007AFE14216846FCF776FE012005900004A0
:1034B0000690002007900120099002200C90C10383
:1034C0000D914FF4E0110E9105A8FDF76DFF08B1C5
:1034D000FDF7D3F90F200090022001900020029008
:1034E0004FF4806003900020049002216846FDF7AD
:1034F00025FE08B1FDF7C1F90FB000BD704700000F
:1035000010B50248FEF73DFE10BD00004C01002042
:1035100010B50248FEF735FE10BD000094010020F2
:1035200010B511480068C06800F00100B0B10F4943
:1035300008684FF07E51FCF739FE0C4908600C49D1
:10354000087800EBD0714910A0EB410131B908486F
:103550000078FA2802DD0020054908706FF00100AC
:1035600001490968086110BDEC0200202400002018
:103570002800002010B50268184B984208D0B0F11E
:10358000804F05D0164B984202D0164B984203D17B
:1035900022F070024B681A43104B984208D0B0F1E9
:1035A000804F05D00E4B984202D00E4B984203D16B
:1035B00022F44072CB681A4322F080034C6943EA3C
:1035C000040202608B68C3620B688362034B9842FB
:1035D00001D10B6903630123436110BD002C01403D
:1035E000000400400008004030B501F01F05012430
:1035F00004FA05F3046A9C430462046A01F01F059F
:1036000002FA05F52C43046230BD30B50C468168E2
:1036100021F47F4142EA032525432943816030BDDF
:103620000A46816821F0700142F007031943816066
:10363000704730B50B461446026A056A25F001054D
:103640000562816921F0F00141EA041122F00A02C9
:103650001A438161026230BD70B50C461546066A98
:1036600026F0010606628169026A124EB04208D055
:10367000B0F1804F05D0104EB04202D00F4EB04294
:1036800001D1012600E000261EB121F003012943EB
:1036900001E041F0010121F0F001F02606EA0316F5
:1036A000314322F00A0204F00A06324381610262C9
:1036B00070BD0000002C01400004004000080040E4
:1036C00030B50B461446056A25F010050562816980
:1036D000026A21F4704141EA043122F0A00242EA78
:1036E00003128161026230BD70B50C461546066A50
:1036F00026F0100606628169026A21F4407141EAEF
:10370000052121F470414FF4704606EA0336314337
:1037100022F0A002A02606EA04163243816102626A
:1037200070BD70B50C461546066A26F480760662B2
:10373000C169026A21F00301294321F0F001F0265A
:1037400006EA0316314322F400724FF4007606EACB
:1037500004263243C161026270BD70B50C46154645
:10376000066A26F480560662C169026A21F4407135
:1037700041EA052121F470414FF4704606EA033610
:10378000314322F400524FF4005606EA0436324325
:10379000C161026270BD70B505466C6A0020E085AB
:1037A000E0842046FEF709FE70BD70B50646002590
:1037B000746A20684069C0F3C01594F83D00212860
:1037C00005D125B10020E084204600F085F820686E
:1037D0004069C0F3801594F83E00222805D125B138
:1037E0000020E085204600F04CF8206C40F01000EE
:1037F00020642046FEF7E1FD70BD70B505466C6A99
:103800002868006800F02000F8B90020E0852068F2
:10381000C06820F480702168C8602068406920F08A
:103820000100216848612068406920F0400021685B
:103830004861202084F83E00206B012805D12068D3
:10384000C06820F010002168C860206B012804D1F6
:10385000A18D2046FEF77DFD02E02046FFF715F81A
:1038600070BD70B505466C6A206B012805D1A08D2E
:1038700041082046FEF76DFD02E02046FFF706F8FE
:1038800070BD0168C96821F490710268D160016857
:10389000496921F0010102685161016B012905D1DB
:1038A0000168C96821F010010268D160202180F808
:1038B0003E1000210163704710B504462068C068BF
:1038C00020F040002168C860202084F83D00204698
:1038D000FFF746F8002010BD0168C96821F0C0015B
:1038E0000268D160202180F83D107047F8B5044689
:1038F00094F83E00222869D1A068B0F5805F0CD111
:10390000206950B90025A66A20684068C0F3080005
:103910003080A06A801CA06215E0A56A0026A0681D
:10392000B0F5805F03D0A06828B9206918B9206875
:103930004068287004E02068406800F07F0028702C
:10394000A06A401CA062E08D401E80B2E085A8BB4A
:103950002068C06820F020002168C8602068C06826
:1039600020F480702168C8602068406920F0010060
:1039700021684861202084F83E00206B01281ED178
:10398000002020632068C06820F010002168C86013
:103990002068006800F0100010280AD100BF002045
:1039A000009020680068009020684068009000BF88
:1039B00000BFA18D2046FEF7CCFC03E004E02046CA
:1039C000FEF763FF0020F8BD0020FCE70220FAE7C5
:1039D00070B504462168096921F44051E268114339
:1039E000226811612269A1681143626941EA0205F6
:1039F0002168C96841F20C62914329432268D16071
:103A00002168496921F44071A2691143226851611A
:103A10002D4A2168914202D1FDF76CFC01E0FDF7CF
:103A200059FC00EBC00101EB001162689200B1FB90
:103A3000F2F100EBC00202EB001263689B00B2FBE4
:103A4000F3F26423B2FBF3F202EBC20303EB0212C4
:103A5000A1EB8201322202EB01116422B1FBF2F1EF
:103A600001F0F00100EBC00202EB001263689B0062
:103A7000B2FBF3F26423B2FBF3F201EB021200EBB0
:103A8000C00101EB001163689B00B1FBF3F100EB97
:103A9000C00303EB00136668B600B3FBF6F36426BD
:103AA000B3FBF6F303EBC30606EB0313A1EB8301B1
:103AB000322303EB01116423B1FBF3F101F00F0199
:103AC00011442268916070BD0038014077B581B023
:103AD000044615460298A062A58500202064222095
:103AE00084F83E001C48A16B88621C48A16BC86228
:103AF0001B48A16B08630020A16B486302AE3268CB
:103B00002368191D2B46A06BFDF740F800BF00206D
:103B1000009020680068009020684068009000BF16
:103B200000BF00BF002084F83C0000BF2068C068D0
:103B300040F480702168C8602068406940F001004E
:103B4000216848612068406940F040002168486170
:103B5000002004B070BD0000FB3700086338000887
:103B6000AB370008014691F83D00212828D188682C
:103B7000B0F5805F0BD1086948B90A6A1088C0F3B4
:103B800008000B685860086A801C086205E00B6A30
:103B9000581C086218780B685860C88C401E80B2A8
:103BA000C88458B90868C06820F080000B68D860E5
:103BB0000868C06840F040000B68D860002070477B
:103BC0000220FCE72DE9F04104460D4617469846D1
:103BD000069E21E0701CF8B12EB1FDF7D7F9A0EBDD
:103BE0000800B04218D92068C06820F4D07021685D
:103BF000C8602068406920F00100216848612020E9
:103C000084F83D0084F83E0000BF002084F83C00AA
:103C100000BF0320BDE8F081206800682840A8426A
:103C200001D1012000E00020B842D3D00020F1E70C
:103C300038B50025254800680068C0F3001500BFAE
:103C40000020009021480068006800901F4800682C
:103C50004068009000BF00BF1C48FEF77BFB1C487B
:103C600000684468C4F114001A4908701A480078C2
:103C7000482819D118484078452815D11648807829
:103C8000412811D11448C07844280DD112488079B8
:103C9000542809D110480079104908700E4840791D
:103CA000487001200E49087000200A490870084633
:103CB00001780948FCF76FFA142207490348FEF718
:103CC000C3FD0248FEF77AFB38BD00002002002049
:103CD000A802002029000020340300202A00002030
:103CE0002C00002010B50248FEF768FB10BD000054
:103CF0006402002000BFFEE70FB4054B10B503A916
:103D0000044A029800F034F810BC5DF814FB00007F
:103D1000354000083000002002480068C0F302204F
:103D2000704700000CED00E010B5002804DB0A0726
:103D3000130E054A135406E00A07140E034A00F056
:103D40000F031B1FD45410BD00E400E018ED00E089
:103D500002E008C8121F08C1002AFAD17047704754
:103D6000002001E001C1121F002AFBD170470000B2
:103D70002DE9FF4F89B09B460446002506E0252823
:103D80000BD05A460B999047641C6D1C2078002874
:103D9000F5D10DB02846BDE8F08F0027B8460122C6
:103DA000474900E0074314F8013F203B02FA03F0C3
:103DB0000842F7D120782E2819D114F8010F47F0C6
:103DC00004072A280ED06FF02F022078A0F13001CE
:103DD00009290CD808EB880102EB410100EB01082E
:103DE000641CF2E70A98641C50F8048B0A9020784F
:103DF0000028CED0642808D0692806D075281ED0A7
:103E00005A460B9990476D1C58E00A994FF00A09E1
:103E100001C90A91002802DA40422D2102E0390549
:103E200004D52B218DF82010012103E0F90704D0DF
:103E30002021F7E78A4608AE0DE00021FAE70A994B
:103E40004FF00A0901C90A91F7E74946FCF7FFFB61
:103E5000303106F8011D0028F7D1ADEB060000F166
:103E60002009780701D44FF00108C84502DDA8EB0E
:103E7000090000E000208046002706E008A85A4616
:103E8000C05D0B9990476D1C7F1C5745F6DB04E025
:103E900030205A460B9990476D1CB8F10001A8F1EB
:103EA0000108F5DC05E016F8010B5A460B9990471E
:103EB0006D1CB9F10001A9F10109F4DC641C65E78E
:103EC0000928010008B500BF1348C06940F004008C
:103ED0001149C8610846C06900F00400009000BFA5
:103EE00000BF0E480E4908604720486000210C487A
:103EF000816040F2DB51C16000210161FDF7E4FC0B
:103F0000002205211E20FDF7C7F81E20FDF7B4F89A
:103F10000348FDF769FD08BD00100240000800409D
:103F2000EC02002010B50346002405E04FF47A703F
:103F300000F006F8601C84B29C42F7DB10BD000064
:103F40000021044A116000BF024909688142FBD385
:103F500070470000240800402DE9F041C1F30A52E7
:103F6000A2F2FF362F4A304B0D460446142E2FDAAC
:103F7000002E12DAFCF7A4F900221346FCF732FCFB
:103F80004CD2002DA4BF0024254647DA25F000407E
:103F9000204318BF254D41D018E0DFF894C02CFA1B
:103FA00006F705EA070C5CEA040C08BFBDE8F081DF
:103FB000FCF786F900221346FCF714FC2ED2002DE4
:103FC00003DA4FF48010F0400544BD43002425E09F
:103FD000332EC8BFBDE8F081A6F1140C4FF0FF37B7
:103FE00027FA0CF73C4208BFBDE8F081FCF70CFA59
:103FF00000221346FCF7F6FB10D2002D0DDA142E2A
:1040000008BF6D1C09D0C6F13400012101FA00F08F
:104010002044A04238BF6D1C0446BC4329462046BC
:10402000BDE8F0819C7500883CE4377E0000F0BF5D
:10403000FFFF0F000F4A12785AB900BF0E4A1268EC
:1040400002F04002002AF9D0C2B20B4B1B1D1A60CD
:104050000EE0084A1278012A0AD100BF074A126806
:1040600002F04002002AF9D0C2B2044B1B1D1A60B4
:10407000704700001000002000380140004400405C
:104080002DE9F05F82465046FCF7A7FA80461C4AAD
:104090001C4BFCF7BCF90646FCF7C0FA1FFA80FA85
:1040A0000024194D0022194B20462946FCF721FA1D
:1040B00004460D465046FCF790FA064632460B463B
:1040C00020462946FCF715FA04460D460022104BFF
:1040D00020462946FCF795F904460D4600220D4B73
:1040E00020462946FCF7ECF88046FFF735FF0646E8
:1040F000FCF794FA00F0FF0B5846BDE8F09F000073
:10410000713D0AD7A370ED3F84D777410000B040DE
:104110000000F03F0000E03F0EB5FCF749FFFFF75D
:10412000BAF9FEF75DFFFEF741FFFEF7E3FFFFF789
:1041300031F8FFF765F8FFF77FF8FFF799F8FFF719
:10414000C1FEFFF7B7F8FEF7ABFD4FF6FF70802317
:10415000A022002100900846FEF77DFDF94880234B
:104160008F22002100900820FEF79AFE3220FFF7F0
:10417000C9F83D22F449F548FBF7E6FFF24890F80C
:104180003D00F24981F83D00EF4890F83E0081F88B
:104190003E00ED4890F83F10EC4880F83F10EA48A8
:1041A00090F84010E94880F84010E74890F8411036
:1041B000E64880F84110E44890F84200E34981F86D
:1041C0004200E14890F84310E04880F84310DE4890
:1041D00090F84410DD4880F84410DB4890F8451012
:1041E000DA4880F84510D84890F84600D74981F859
:1041F00046000C200865082048650846016DFDF75B
:10420000A9FE00BFD148006D40B9D0480068006ADF
:1042100020F00A00CD490968086221E0CB48006D12
:10422000042808D1C9480068006A20F0A000C749E6
:104230000968086214E0C548006D082808D1C34821
:104240000068006A20F40070C0490968086207E04D
:10425000BE480068006A20F40050BC490968086242
:10426000BA48006D30B9B9480068006AB7490968B2
:1042700008621BE0B548006D042806D1B348006809
:10428000006AB2490968086210E0B048006D082869
:1042900006D1AE480068006AAC490968086205E0CA
:1042A000AA480068006AA9490968086200BF002599
:1042B00012E00122D103A648FCF762FE1420FFF7AA
:1042C0003FFE00224FF40041A148FCF759FE3C207C
:1042D000FCF7AAFC681CC5B2082DEADB9D490868FA
:1042E000FCF776F905469C49FBF7B8FF9B49086047
:1042F0009BA0006802909BA00068019000214FF4F1
:10430000F070FFF787F80F21FA20FFF783F80024F9
:10431000F3E10122D1038E48FCF732FE1420FFF7AF
:104320000FFE00224FF400418948FCF729FE89491D
:104330000868FCF74DF905468B49FBF78FFF874965
:10434000086008460068FCF755F985B2E81705EBE8
:104350001060000A8DF8090080480068FCF74AF9EF
:1043600085B2E81705EB10600012A5EB0020C0B283
:104370008DF80A009DF808009DF8091008449DF882
:104380000A100844C0B28DF80B004FF6FF730422E8
:1043900002A97648FEF77BFA1E20FCF745FC74481C
:1043A0000078012841D100207149087071480078D7
:1043B000312803D06F480078322836D16D484078D4
:1043C000312803D06B48407832282ED169480078D4
:1043D000312803D101208DF8050002E002208DF87C
:1043E000050064484078312803D101208DF806008B
:1043F00002E002208DF806009DF804009DF80510EB
:1044000008449DF806100844C0B28DF8070000BFAC
:104410005948006800F040000028F9D04FF6FF73BB
:10442000042201A95148FEF732FA1E20FCF7FCFBDA
:10443000002C7CD14F480078312805D100214FF461
:10444000AF70FEF7E7FF07E04A480078322803D153
:104450000F21C000FEF7DEFF02213D48FCF788FD7A
:1044600080B34FF4FA70FCF7DFFB00214FF4F070DB
:10447000FEF7D0FF00203F4908708DF805009DF839
:1044800004009DF8051008449DF806100844C0B2C9
:104490008DF807004FF4FA70FCF7C6FB00250EE01C
:1044A00000BF3548006800F040000028F9D04FF602
:1044B000FF73042201A92D48FEF7E9F96D1C032DB5
:1044C000EEDB012401212248FCF752FD78B34FF4C2
:1044D000FA70FCF7A9FB0F21FA20FEF79BFF0020E2
:1044E0008DF80500234908709DF804009DF805101B
:1044F00008449DF806100844C0B28DF807004FF438
:10450000FA70FCF791FB00250EE000BF1A48006826
:1045100000F040000028F9D04FF6FF73042201A9F3
:104520001248FEF7B4F96D1C032DEEDB0124012CBB
:1045300001D1012000E000200E490978F1B10121EC
:104540001DE00000244700084C010020340000203A
:10455000000C01402C01002000002A430C00002028
:10456000FF000000550000007B142E3EDC010020FF
:104570002C0000202A0000200038014000210840C3
:10458000002871D05D480078312859D101208DF87C
:1045900005009DF804009DF8051008449DF80610DC
:1045A0000844C0B28DF8070000250EE000BF544853
:1045B000006800F040000028F9D04FF6FF73042295
:1045C00001A95048FEF763F96D1C0A2DEEDB0021AE
:1045D0004FF4AF70FEF71EFF0FE000204749087050
:1045E0008DF805009DF804009DF8051008449DF81D
:1045F00006100844C0B28DF8070002214248FCF7BB
:10460000B7FC0028E9D14FF4FA70FCF70DFB00214C
:104610004FF4F070FEF7FEFE00250EE000BF3848B4
:10462000006800F040000028F9D04FF6FF73042224
:1046300001A93448FEF72BF96D1C032D5DDAEDE777
:104640002E480078322858D101208DF805009DF8B9
:1046500004009DF8051008449DF806100844C0B2F7
:104660008DF8070000250FE047E000BF24480068F0
:1046700000F040000028F9D04FF6FF73042201A992
:104680002048FEF704F96D1C0A2DEEDB0F214FF4D4
:10469000C870FEF7BFFE0FE00020184908708DF8C3
:1046A00005009DF804009DF8051008449DF80610CB
:1046B0000844C0B28DF8070001211348FCF758FCEC
:1046C0000028E9D14FF4FA70FCF7AEFA0F21FA2076
:1046D000FEF7A0FE00250EE000BF0948006800F0CC
:1046E00040000028F9D04FF6FF73042201A90548C5
:1046F000FEF7CDF86D1C032DEEDB0AE62A00002044
:1047000000380140DC010020000C014000000000E6
:104710000000000001020304060708090000000071
:1047200001020304FFFFFFFFFFFFFFFFFFFFFFFF8B
:10473000FFFFFFFFFFFFFFFFFFFFFFFFFFFFFFFF89
:10474000FFFFFFFFFFFFFFFFFFFFFFFFFFFFFFFF79
:10475000FFFFFFFFFFFFFFFFFFFFFFFFFFFFFFFF69
:10476000FFFFFFFFFFFFFFFFFFFFFFFFFFFFFFFF59
:10477000FFFFFFFFFFFFFFFFFFFFFFFFFFFFFFFF49
:10478000FFFFFFFFFFFFFFFFFFDFFFDFFFFFFFFF79
:10479000FFFFFFDFF7BEFFDFFFDFFFDFFFFFFFFFF2
:1047A000FFFFFFFFFFFFF7DFF7DFFFFFFFFFFFDF89
:1047B000FFFFFFFFFFFFFFFFFFFFFFFFFFFFFFFF09
:1047C000FFFFFFFFFFFFFFFFFFFFFFFFFFFFFFFFF9
:1047D000FFFFFFFFFFFFFFFFFFFFFFFFFFFFFFFFE9
:1047E000FFFFFFFFFFFFFFFFFFFFFFFFFFFFFFFFD9
:1047F000FFFFFFFFFFFFFFFFFFFFFFFFFFFFFFFFC9
:10480000FFFFFFFFFFFFFFFFFFFFFFFFFFFFFFFFB8
:10481000FFFFFFFFFFFFFFFFFFFFFFFFFFFFFFFFA8
:10482000FFFFFFFFFFFFFFFFFFFFFFFFFFFFFFFF98
:10483000FFFFFFFFFFFFFFFFFFFFFFFFFFFFFFFF88
:10484000FFFFFFFFFFFFFFFFFFFFFFFFFFFFFFFF78
:10485000FFFFFFFFFFFFFFFFFFFFFFFFFFFFFFFF68
:10486000FFFFFFFFFFFFFFFFFFFFFFFFFFFFFFFF58
:10487000FFFFFFFFFFFFFFFFFFFFFFFFFFFFFFFF48
:10488000FFFFFFFFFFFFFFFFFFFFFFFFFFFFFFFF38
:10489000FFFFFFFFFFFFFFFFFFFFFFFFFFFFFFFF28
:1048A000FFFFFFFFFFDFFFFFF7BEF7BEB5B673AE3A
:1048B000320829A72146086400640864086410C50A
:1048C000296821675B0DA515EF5DFFFFF7DFFFDFAF
:1048D000FFFFFFFFFFFFFFFFFFFFFFFFFFFFFFFFE8
:1048E000FFFFFFFFFFFFFFFFFFFFFFFFFFFFFFFFD8
:1048F000FFFFFFFFFFFFFFFFFFFFFFFFFFFFFFFFC8
:10490000FFFFFFFFFFFFFFFFFFFFFFFFFFFFFFFFB7
:10491000FFFFFFFFFFFFFFFFFFFFFFFFFFFFFFFFA7
:10492000FFFFFFFFFFFFFFFFFFFFFFFFFFFFFFFF97
:10493000FFFFFFFFFFFFFFFFFFFFFFFFFFFFFFFF87
:10494000FFFFFFFFFFFFFFFFFFFFFFFFFFFFFFFF77
:10495000FFFFFFFFFFFFFFFFFFFFFFFFFFFFFFFF67
:10496000FFFFFFFFFFFFFFFFFFFFFFFFFFFFFFFF57
:10497000FFFFFFFFFFFFFFFFFFFFFFFFFFFFFFFF47
:10498000FFFFFFFFFFFFFFFFFFFFFFFFFFFFFFFF37
:10499000FFFFFFFFFFFFFFFFFFFFFFFFFFFFFFFF27
:1049A000FFFFFFFFFFFFFFFFFFFFFFFFFFFFFFFF17
:1049B000FFFFFFFFFFFFFFFFFFFFFFFFFFFFFFFF07
:1049C000FFFFDEDB947218C500230004006500665B
:1049D00008A71969194A194B218C218B112A110A30
:1049E00010E900860024082321476B6DE71CF7DFE0
:1049F000FFFFFFFFFFFFFFFFFFFFFFFFFFFFFFFFC7
:104A0000FFFFFFFFFFFFFFFFFFFFFFFFFFFFFFFFB6
:104A1000FFFFFFFFFFFFFFFFFFFFFFFFFFFFFFFFA6
:104A2000FFFFFFFFFFFFFFFFFFFFFFFFFFFFFFFF96
:104A3000FFFFFFFFFFFFFFFFFFFFFFFFFFFFFFFF86
:104A4000FFFFFFFFFFFFFFFFFFFFFFFFFFFFFFFF76
:104A5000FFFFFFFFFFFFFFFFFFFFFFFFFFFFFFFF66
:104A6000FFFFFFFFFFFFFFFFFFFFFFFFFFFFFFFF56
:104A7000FFFFFFFFFFFFFFFFFFFFFFFFFFFFFFFF46
:104A8000FFFFFFFFFFFFFFFFFFFFFFFFFFFFFFFF36
:104A9000FFFFFFFFFFFFFFFFFFFFFFFFFFFFFFFF26
:104AA000FFFFFFFFFFFFFFFFFFFFFFFFFFFFFFFF16
:104AB000FFFFFFFFFFFFFFFFFFFFFFFFFFFFFFFF06
:104AC000FFFFFFFFFFFFFFFFFFFFFFFFFFFFFFFFF6
:104AD000FFFFFFFFF7BEF7BEF7BEE73C8C7110E4A7
:104AE00008440087114B42726BD76C1963F85BD88E
:104AF0005BD85BD95BB953B95BDA5BD95BD95BB97E
:104B000063F9537642F3198D00A608A62125BDD777
:104B1000FFBFF79EFFDFFFDFFFFFFFFFFFFFFFFF8E
:104B2000FFFFFFFFFFFFFFFFFFFFFFFFFFFFFFFF95
:104B3000FFFFFFFFFFFFFFFFFFFFFFFFFFFFFFFF85
:104B4000FFFFFFFFFFFFFFFFFFFFFFFFFFFFFFFF75
:104B5000FFFFFFFFFFFFFFFFFFFFFFFFFFFFFFFF65
:104B6000FFFFFFFFFFFFFFFFFFFFFFFFFFFFFFFF55
:104B7000FFFFFFFFFFFFFFFFFFFFFFFFFFFFFFFF45
:104B8000FFFFFFFFFFFFFFFFFFFFFFFFFFFFFFFF35
:104B9000FFFFFFFFFFFFFFFFFFFFFFFFFFFFFFFF25
:104BA000FFFFFFFFFFFFFFFFFFFFFFFFFFFFFFFF15
:104BB000FFFFFFFFFFFFFFFFFFFFFFFFFFFFFFFF05
:104BC000FFFFFFFFFFFFFFFFFFFFFFFFFFFFFFFFF5
:104BD000FFFFFFFFFFFFFFFFFFFFFFFFFFFFFFFFE5
:104BE000FFFFFFFFFFFFFFFFFFFFFFFFFFFFFFFFD5
:104BF000FFFFFFFFF7BEA53418A610C710C83AD1B3
:104C00005BD55BF953DA53DA53BA53BB53BB53BB8F
:104C100053BB53BB53BB53BB53DB53DC53BC539B02
:104C200053BB5BDB5BF95C1742B2004708C7212727
:104C3000DEFCFFDFFFDFFFFFFFFFFFFFFFFFFFFFE8
:104C4000FFFFFFFFFFFFFFFFFFFFFFFFFFFFFFFF74
:104C5000FFFFFFFFFFFFFFFFFFFFFFFFFFFFFFFF64
:104C6000FFFFFFFFFFFFFFFFFFFFFFFFFFFFFFFF54
:104C7000FFFFFFFFFFFFFFFFFFFFFFFFFFFFFFFF44
:104C8000FFFFFFFFFFFFFFFFFFFFFFFFFFFFFFFF34
:104C9000FFFFFFFFFFFFFFFFFFFFFFFFFFFFFFFF24
:104CA000FFFFFFFFFFFFFFFFFFFFFFFFFFFFFFFF14
:104CB000FFFFFFFFFFFFFFFFFFFFFFFFFFFFFFFF04
:104CC000FFFFFFFFFFFFFFFFFFFFFFFFFFFFFFFFF4
:104CD000FFFFFFFFFFFFFFFFFFFFFFFFFFFFFFFFE4
:104CE000FFFFFFFFFFFFFFFFFFFFFFFFFFFFFFFFD4
:104CF000FFFFFFFFFFFFFFFFFFFFFFFFFFFFFFFFC4
:104D0000FFFFFFFFFFFFFFFFFFFFFFFFFFFFFFFFB3
:104D1000FFDF2105088308C95B765B774BDA43D94F
:104D20003BDA43BB4BFD43FD43DD43DD43DD43DD68
:104D300043DD43DD43DD43FD4BFD43DD43BC4BDD44
:104D40004BDD4BFC4C1B43BA641A535500A800645E
:104D50004A6AEF9EFFFFFFFFFFFFFFFFFFFFFFFF1E
:104D6000FFFFFFFFFFFFFFFFFFFFFFFFFFFFFFFF53
:104D7000FFFFFFFFFFFFFFFFFFFFFFFFFFFFFFFF43
:104D8000FFFFFFFFFFFFFFFFFFFFFFFFFFFFFFFF33
:104D9000FFFFFFFFFFFFFFFFFFFFFFFFFFFFFFFF23
:104DA000FFFFFFFFFFFFFFFFFFFFFFFFFFFFFFFF13
:104DB000FFFFFFFFFFFFFFFFFFFFFFFFFFFFFFFF03
:104DC000FFFFFFFFFFFFFFFFFFFFFFFFFFFFFFFFF3
:104DD000FFFFFFFFFFFFFFFFFFFFFFFFFFFFFFFFE3
:104DE000FFFFFFFFFFFFFFFFFFFFFFFFFFFFFFFFD3
:104DF000FFFFFFFFFFFFFFFFFFFFFFFFFFFFFFFFC3
:104E0000FFFFFFFFFFFFFFFFFFFFFFFFFFFFFFFFB2
:104E1000FFFFFFFFFFFFFFFFFFFFFFFFFFFFFFFFA2
:104E2000FFFFFFFFFFFFFFFFFFFFFFDFB57508621A
:104E30000885429064395BFA4C1B43DC43FC43DC3D
:104E400043DC441C43FC43FC43FC43FC43FC43FC69
:104E500043FC43FC43FC43FC4BDD43FD4BFC4BFC60
:104E60004BFC4BFC4BFD4BDC5BFB63D7324F11071C
:104E700010E6E75DFFDFF7BFFFFFFFFFFFFFFFFF6C
:104E8000FFFFFFFFFFFFFFFFFFFFFFFFFFFFFFFF32
:104E9000FFFFFFFFFFFFFFFFFFFFFFFFFFFFFFFF22
:104EA000FFFFFFFFFFFFFFFFFFFFFFFFFFFFFFFF12
:104EB000FFFFFFFFFFFFFFFFFFFFFFFFFFFFFFFF02
:104EC000FFFFFFFFFFFFFFFFFFFFFFFFFFFFFFFFF2
:104ED000FFFFFFFFFFFFFFFFFFFFFFFFFFFFFFFFE2
:104EE000FFFFFFFFFFFFFFFFFFFFFFFFFFFFFFFFD2
:104EF000FFFFFFFFFFFFFFFFFFFFFFFFFFFFFFFFC2
:104F0000FFFFFFFFFFFFFFFFFFFFFFFFFFFFFFFFB1
:104F1000FFFFFFFFFFFFFFFFFFFFFFFFFFFFFFFFA1
:104F2000FFFFFFFFFFFFFFFFFFFFFFFFFFFFFFFF91
:104F3000FFFFFFFFFFFFFFFFFFFFFFFFFFFFFFFF81
:104F4000FFFFFFFFFFFFFFFF94B418A710E963D531
:104F50005BD953DA4BBB4BDC43FC43FC43FC43FCC7
:104F600043FC43FC43FC43FC43FC43FC43FC43FC49
:104F700043FC4BFC4BFC4BFC4BFD43FC43FC4BFC10
:104F80004BFC4BFD4BFD541C5BF94B9763D608C99A
:104F90000064BDB7F7BFFFFFFFFFFFFFFFFFFFFF8D
:104FA000FFFFFFFFFFFFFFFFFFFFFFFFFFFFFFFF11
:104FB000FFFFFFFFFFFFFFFFFFFFFFFFFFFFFFFF01
:104FC000FFFFFFFFFFFFFFFFFFFFFFFFFFFFFFFFF1
:104FD000FFFFFFFFFFFFFFFFFFFFFFFFFFFFFFFFE1
:104FE000FFFFFFFFFFFFFFFFFFFFFFFFFFFFFFFFD1
:104FF000FFFFFFFFFFFFFFFFFFFFFFFFFFFFFFFFC1
:10500000FFFFFFFFFFFFFFFFFFFFFFFFFFFFFFFFB0
:10501000FFFFFFFFFFFFFFFFFFFFFFFFFFFFFFFFA0
:10502000FFFFFFFFFFFFFFFFFFFFFFFFFFFFFFFF90
:10503000FFFFFFFFFFFFFFFFFFFFFFFFFFFFFFFF80
:10504000FFFFFFFFFFFFFFFFFFFFFFFFFFFFFFFF70
:10505000FFFFFFFFFFFFFFFFFFFFFFFFFFFFFFFF60
:10506000FFFFFFFF8C910004214E6BD95BDA5BFCE4
:105070004BDC4BFD439B43FC43FC43FC43FC43FCA8
:1050800043FC43FC43FC43FC43FC4BFD4BDD43DC56
:105090004BFD4BFD4BFC4BFB4BFC4BFC4BFB4BFBD9
:1050A0004BFB4C1C4BFC53DC4B9A6C5B6BF7004589
:1050B00018C4D67AFFDFFFFFFFFFFFFFFFFFFFFFF0
:1050C000FFFFFFFFFFFFFFFFFFFFFFFFFFFFFFFFF0
:1050D000FFFFFFFFFFFFFFFFFFFFFFFFFFFFFFFFE0
:1050E000FFFFFFFFFFFFFFFFFFFFFFFFFFFFFFFFD0
:1050F000FFFFFFFFFFFFFFFFFFFFFFFFFFFFFFFFC0
:10510000FFFFFFFFFFFFFFFFFFFFFFFFFFFFFFFFAF
:10511000FFFFFFFFFFFFFFFFFFFFFFFFFFFFFFFF9F
:10512000FFFFFFFFFFFFFFFFFFFFFFFFFFFFFFFF8F
:10513000FFFFFFFFFFFFFFFFFFFFFFFFFFFFFFFF7F
:10514000FFFFFFFFFFFFFFFFFFFFFFFFFFFFFFFF6F
:10515000FFFFFFFFFFFFFFFFFFFFFFFFFFFFFFFF5F
:10516000FFFFFFFFFFFFFFFFFFFFFFFFFFFFFFFF4F
:10517000FFFFFFFFFFFFFFFFFFFFFFFFFFDFFFDF7F
:10518000AD5408A5192D743C539C4BDC4BDC43FCFF
:105190004BDC4BDC43DC43DC43FC43FC43FC43FC87
:1051A00043FC43FC43FC43FC4C1C4BFC4BDC4BDC06
:1051B0004BFD4BDC4BFB541B5C5B43B74BD75C7824
:1051C00054384BF854188DDF4BB853B663B610C73C
:1051D0000864C639FFFFFFDFFFFFFFFFFFFFFFFF90
:1051E000FFFFFFFFFFFFFFFFFFFFFFFFFFFFFFFFCF
:1051F000FFFFFFFFFFFFFFFFFFFFFFFFFFFFFFFFBF
:10520000FFFFFFFFFFFFFFFFFFFFFFFFFFFFFFFFAE
:10521000FFFFFFFFFFFFFFFFFFFFFFFFFFFFFFFF9E
:10522000FFFFFFFFFFFFFFFFFFFFFFFFFFFFFFFF8E
:10523000FFFFFFFFFFFFFFFFFFFFFFFFFFFFFFFF7E
:10524000FFFFFFFFFFFFFFFFFFFFFFFFFFFFFFFF6E
:10525000FFFFFFFFFFFFFFFFFFFFFFFFFFFFFFFF5E
:10526000FFFFFFFFFFFFFFFFFFFFFFFFFFFFFFFF4E
:10527000FFFFFFFFFFFFFFFFFFFFFFFFFFFFFFFF3E
:10528000FFFFFFFFFFFFFFFFFFFFFFFFFFFFFFFF2E
:10529000FFFFFFFFFFFFFFFFFFFFFFDFDEFC1083CD
:1052A000114A5C185BFB4BBC4BBC4BDC4BDC43FC3E
:1052B00043FC43DC43DC43FC43FC43FC43FC43FC36
:1052C00043FC4C1B4C1A43B953DA5BFB53FA4BD9E2
:1052D0005418751B6CF97D7B9E1E7D5B64D68DDB3F
:1052E0005C354BD3AEDF53D753D853B75B9510C95A
:1052F0000023F7BFF79EFFFFFFFFFFFFFFFFFFFF4A
:10530000FFFFFFFFFFFFFFFFFFFFFFFFFFFFFFFFAD
:10531000FFFFFFFFFFFFFFFFFFFFFFFFFFFFFFFF9D
:10532000FFFFFFFFFFFFFFFFFFFFFFFFFFFFFFFF8D
:10533000FFFFFFFFFFFFFFFFFFFFFFFFFFFFFFFF7D
:10534000FFFFFFFFFFFFFFFFFFFFFFFFFFFFFFFF6D
:10535000FFFFFFFFFFFFFFFFFFFFFFFFFFFFFFFF5D
:10536000FFFFFFFFFFFFFFFFFFFFFFFFFFFFFFFF4D
:10537000FFFFFFFFFFFFFFFFFFFFFFFFFFFFFFFF3D
:10538000FFFFFFFFFFFFFFFFFFFFFFFFFFFFFFFF2D
:10539000FFFFFFFFFFFFFFFFFFFFFFFFFFFFFFFF1D
:1053A000FFFFFFFFFFFFFFFFFFFFFFFFFFFFFFFF0D
:1053B000FFFFFFFFFFFFFFFFF77F18C708C65BF681
:1053C00053FA4BDB4BDC4BDC4BDC4BDC43FC43FC50
:1053D00043FC43FC43FC43FC43FC43FC43FC441BB5
:1053E00043D67D7B965E7D1B53D8645AAE7FA67CE8
:1053F000859775169E3B74995C184BD57D1874B7CC
:105400004BB295BB54175459541A53B853551066A0
:105410002126FFDFFFFFFFFFFFFFFFFFFFFFFFFF73
:10542000FFFFFFFFFFFFFFFFFFFFFFFFFFFFFFFF8C
:10543000FFFFFFFFFFFFFFFFFFFFFFFFFFFFFFFF7C
:10544000FFFFFFFFFFFFFFFFFFFFFFFFFFFFFFFF6C
:10545000FFFFFFFFFFFFFFFFFFFFFFFFFFFFFFFF5C
:10546000FFFFFFFFFFFFFFFFFFFFFFFFFFFFFFFF4C
:10547000FFFFFFFFFFFFFFFFFFFFFFFFFFFFFFFF3C
:10548000FFFFFFFFFFFFFFFFFFFFFFFFFFFFFFFF2C
:10549000FFFFFFFFFFFFFFFFFFFFFFFFFFFFFFFF1C
:1054A000FFFFFFFFFFFFFFFFFFFFFFFFFFFFFFFF0C
:1054B000FFFFFFFFFFFFFFFFFFFFFFFFFFFFFFFFFC
:1054C000FFFFFFFFFFFFFFFFFFFFFFFFFFFFFFFFEC
:1054D000FFFFFFFFFFFF528C006663B64BFB4BFCE8
:1054E0004BFC43FC4BDC43FC43FC43FC4BFC43FCCC
:1054F00043FC43FC43FC43FC43DC43FC4C17B75FD9
:105500005C555C546CD5BF3F53F674D985797514DE
:105510008D77A65B5BD44B7753F8AE7F539564567B
:105520006C5553B46C99545A53DA63B85B34190907
:105530008433FFFFFFFFFFDFFFFFFFFFFFFFFFFFE2
:10554000FFFFFFFFFFFFFFFFFFFFFFFFFFFFFFFF6B
:10555000FFFFFFFFFFFFFFFFFFFFFFFFFFFFFFFF5B
:10556000FFFFFFFFFFFFFFFFFFFFFFFFFFFFFFFF4B
:10557000FFFFFFFFFFFFFFFFFFFFFFFFFFFFFFFF3B
:10558000FFFFFFFFFFFFFFFFFFFFFFFFFFFFFFFF2B
:10559000FFFFFFFFFFFFFFFFFFFFFFFFFFFFFFFF1B
:1055A000FFFFFFFFFFFFFFFFFFFFFFFFFFFFFFFF0B
:1055B000FFFFFFFFFFFFFFFFFFFFFFFFFFFFFFFFFB
:1055C000FFFFFFFFFFFFFFFFFFFFFFFFFFFFFFFFEB
:1055D000FFFFFFFFFFFFFFFFFFFFFFFFFFFFFFFFDB
:1055E000FFFFFFFFFFFFFFFFFFFFFFFFFFFFFFDFEB
:1055F000FFDFCE79006429ED5BD84BFB4BFC4BDC25
:105600004BDC4BDC4BDC4BDC4BFC4BFC43FC43FCF2
:1056100043FC43FC4BFD43FC4BDB7D5A6CB54BF428
:105620003BB2C79F4BB153F55C157D175C32D7BFBA
:105630006433A61C64195C399DBC5395A69E8D18D5
:10564000CF1F959D4BF94BBB53DA641A008B10C7E3
:1056500039E8E71CFFFFFFFFFFFFFFFFFFFFFFFF32
:10566000FFFFFFFFFFFFFFFFFFFFFFFFFFFFFFFF4A
:10567000FFFFFFFFFFFFFFFFFFFFFFFFFFFFFFFF3A
:10568000FFFFFFFFFFFFFFFFFFFFFFFFFFFFFFFF2A
:10569000FFFFFFFFFFFFFFFFFFFFFFFFFFFFFFFF1A
:1056A000FFFFFFFFFFFFFFFFFFFFFFFFFFFFFFFF0A
:1056B000FFFFFFFFFFFFFFFFFFFFFFFFFFFFFFFFFA
:1056C000FFFFFFFFFFFFFFFFFFFFFFFFFFFFFFFFEA
:1056D000FFFFFFFFFFFFFFFFFFFFFFFFFFFFFFFFDA
:1056E000FFFFFFFFFFFFFFFFFFFFFFFFFFFFFFFFCA
:1056F000FFFFFFFFFFFFFFFFFFFFFFFFFFFFFFFFBA
:10570000FFFFFFFFFFFFFFFFFFFFFFFFFFDFF7BE12
:105710002125088763F943DB43FB4BFC4BDC4BDC67
:105720004BDC4BDC4BDC4BFC4BFC43FC43FC43FCB9
:1057300043FC43FD441C4BDB9E1C4BB143D5BF7F58
:105740005BD44BF4B6FF6416AE9F649585384B70FE
:105750009DDA54155436BEDF53F564585C165C165A
:1057600053F94BFB4BDD4BDB4BDC5BDA4AB310C729
:1057700010A4C679FFDFFFFFFFFFFFFFFFFFFFFF62
:10578000FFFFFFFFFFFFFFFFFFFFFFFFFFFFFFFF29
:10579000FFFFFFFFFFFFFFFFFFFFFFFFFFFFFFFF19
:1057A000FFFFFFFFFFFFFFFFFFFFFFFFFFFFFFFF09
:1057B000FFFFFFFFFFFFFFFFFFFFFFFFFFFFFFFFF9
:1057C000FFFFFFFFFFFFFFFFFFFFFFFFFFFFFFFFE9
:1057D000FFFFFFFFFFFFFFFFFFFFFFFFFFFFFFFFD9
:1057E000FFFFFFFFFFFFFFFFFFFFFFFFFFFFFFFFC9
:1057F000FFFFFFFFFFFFFFFFFFFFFFFFFFFFFFFFB9
:10580000FFFFFFFFFFFFFFFFFFFFFFFFFFFFFFFFA8
:10581000FFFFFFFFFFFFFFFFFFFFFFFFFFFFFFFF98
:10582000FFFFFFFFFFFFFFFFFFFFFFDFC639004461
:10583000324F5BFA43BC43FC4BDC4BDC4BDC4BDCB8
:105840004BDC4BDC43FC43FC4BDC4BDC4BDC43FCD8
:1058500043FD3BFC43DB7D3A8DB95415541453B5DD
:1058600053F653D65C179E3D4BB26C568D5AAE7EA6
:105870009E9E4C175C1753F853DA4BFA4BFA4BFBCE
:105880004BFC4BDD4BDD4BDC5BDB53576BD510E743
:1058900008C4F7BEFFDFFFFFFFFFFFFFFFFFFFFFB3
:1058A000FFFFFFFFFFFFFFFFFFFFFFFFFFFFFFFF08
:1058B000FFFFFFFFFFFFFFFFFFFFFFFFFFFFFFFFF8
:1058C000FFFFFFFFFFFFFFFFFFFFFFFFFFFFFFFFE8
:1058D000FFFFFFFFFFFFFFFFFFFFFFFFFFFFFFFFD8
:1058E000FFFFFFFFFFFFFFFFFFFFFFFFFFFFFFFFC8
:1058F000FFFFFFFFFFFFFFFFFFFFFFFFFFFFFFFFB8
:10590000FFFFFFFFFFFFFFFFFFFFFFFFFFFFFFFFA7
:10591000FFFFFFFFFFFFFFFFFFFFFFFFFFFFFFFF97
:10592000FFFFFFFFFFFFFFFFFFFFFFFFFFFFFFFF87
:10593000FFFFFFFFFFFFFFFFFFFFFFFFFFFFFFFF77
:10594000FFFFFFFFFFFFFFFFFFFF316708A85C18A5
:1059500053FA4BFD4BDC4BDC4BDC4BDC4BDC4BDCC8
:105960004BDC4BDC4BDC4BDC4BDC4BDC4BDD43DD05
:105970003BFB43FC4397B71E8D5853934351A65DA1
:10598000645A5BDA4B77A65F645653D653D84BF80C
:105990004BFA53DA541D439D4BBD4BDD4BFC4BFD85
:1059A0004BDD4BDD4BDD53BB53B95BD86BD600648D
:1059B000C5F8FFDFFFFFFFFFFFFFFFFFFFFFFFFF58
:1059C000FFFFFFFFFFFFFFFFFFFFFFFFFFFFFFFFE7
:1059D000FFFFFFFFFFFFFFFFFFFFFFFFFFFFFFFFD7
:1059E000FFFFFFFFFFFFFFFFFFFFFFFFFFFFFFFFC7
:1059F000FFFFFFFFFFFFFFFFFFFFFFFFFFFFFFFFB7
:105A0000FFFFFFFFFFFFFFFFFFFFFFFFFFFFFFFFA6
:105A1000FFFFFFFFFFFFFFFFFFFFFFFFFFFFFFFF96
:105A2000FFFFFFFFFFFFFFFFFFFFFFFFFFFFFFFF86
:105A3000FFFFFFFFFFFFFFFFFFFFFFFFFFFFFFFF76
:105A4000FFFFFFFFFFFFFFFFFFFFFFFFFFFFFFFF66
:105A5000FFFFFFFFFFFFFFFFFFFFFFFFFFFFFFFF56
:105A6000FFFFF7BEFFFFEF5D00243A7153DA43DC1E
:105A70004BFC43FC4BFC43FD43FC43FC43FC43FC1D
:105A80004BDC4BDC4BDC4BDC4BDC4BDD43FC43FCAD
:105A900043DC43FB4BB8A63DCF7FD7BFAE9E53D967
:105AA0005BDB5BBB53DA53FA4BFA4BDA4BFB4BFB3A
:105AB0004BFB43FB43BC4BBD4BDC4BDC53BC53BCEF
:105AC0005BDC5BFC4B9A5C1B63F842712129C618B6
:105AD000FFDFFFFFFFFFFFFFFFFFFFFFFFFFFFFFF6
